{
  "_format": "hh-sol-artifact-1",
  "contractName": "Dal",
  "sourceName": "contracts/erc-20/Dal.sol",
  "abi": [
    {
      "inputs": [
        {
          "internalType": "uint256",
          "name": "cap",
          "type": "uint256"
        },
        {
          "internalType": "address",
          "name": "_serviceContract",
          "type": "address"
        },
        {
          "internalType": "address",
          "name": "owner",
          "type": "address"
        }
      ],
      "stateMutability": "nonpayable",
      "type": "constructor"
    },
    {
      "inputs": [
        {
          "internalType": "uint256",
          "name": "increasedSupply",
          "type": "uint256"
        },
        {
          "internalType": "uint256",
          "name": "cap",
          "type": "uint256"
        }
      ],
      "name": "ERC20ExceededCap",
      "type": "error"
    },
    {
      "inputs": [
        {
          "internalType": "address",
          "name": "spender",
          "type": "address"
        },
        {
          "internalType": "uint256",
          "name": "allowance",
          "type": "uint256"
        },
        {
          "internalType": "uint256",
          "name": "needed",
          "type": "uint256"
        }
      ],
      "name": "ERC20InsufficientAllowance",
      "type": "error"
    },
    {
      "inputs": [
        {
          "internalType": "address",
          "name": "sender",
          "type": "address"
        },
        {
          "internalType": "uint256",
          "name": "balance",
          "type": "uint256"
        },
        {
          "internalType": "uint256",
          "name": "needed",
          "type": "uint256"
        }
      ],
      "name": "ERC20InsufficientBalance",
      "type": "error"
    },
    {
      "inputs": [
        {
          "internalType": "address",
          "name": "approver",
          "type": "address"
        }
      ],
      "name": "ERC20InvalidApprover",
      "type": "error"
    },
    {
      "inputs": [
        {
          "internalType": "uint256",
          "name": "cap",
          "type": "uint256"
        }
      ],
      "name": "ERC20InvalidCap",
      "type": "error"
    },
    {
      "inputs": [
        {
          "internalType": "address",
          "name": "receiver",
          "type": "address"
        }
      ],
      "name": "ERC20InvalidReceiver",
      "type": "error"
    },
    {
      "inputs": [
        {
          "internalType": "address",
          "name": "sender",
          "type": "address"
        }
      ],
      "name": "ERC20InvalidSender",
      "type": "error"
    },
    {
      "inputs": [
        {
          "internalType": "address",
          "name": "spender",
          "type": "address"
        }
      ],
      "name": "ERC20InvalidSpender",
      "type": "error"
    },
    {
      "inputs": [
        {
          "internalType": "address",
          "name": "owner",
          "type": "address"
        }
      ],
      "name": "OwnableInvalidOwner",
      "type": "error"
    },
    {
      "inputs": [
        {
          "internalType": "address",
          "name": "account",
          "type": "address"
        }
      ],
      "name": "OwnableUnauthorizedAccount",
      "type": "error"
    },
    {
      "anonymous": false,
      "inputs": [
        {
          "indexed": true,
          "internalType": "address",
          "name": "owner",
          "type": "address"
        },
        {
          "indexed": true,
          "internalType": "address",
          "name": "spender",
          "type": "address"
        },
        {
          "indexed": false,
          "internalType": "uint256",
          "name": "value",
          "type": "uint256"
        }
      ],
      "name": "Approval",
      "type": "event"
    },
    {
      "anonymous": false,
      "inputs": [
        {
          "indexed": false,
          "internalType": "address",
          "name": "from",
          "type": "address"
        },
        {
          "indexed": false,
          "internalType": "uint256",
          "name": "value",
          "type": "uint256"
        }
      ],
      "name": "Burn",
      "type": "event"
    },
    {
      "anonymous": false,
      "inputs": [
        {
          "indexed": false,
          "internalType": "address",
          "name": "to",
          "type": "address"
        },
        {
          "indexed": false,
          "internalType": "uint256",
          "name": "value",
          "type": "uint256"
        }
      ],
      "name": "Mint",
      "type": "event"
    },
    {
      "anonymous": false,
      "inputs": [
        {
          "indexed": true,
          "internalType": "address",
          "name": "previousOwner",
          "type": "address"
        },
        {
          "indexed": true,
          "internalType": "address",
          "name": "newOwner",
          "type": "address"
        }
      ],
      "name": "OwnershipTransferred",
      "type": "event"
    },
    {
      "anonymous": false,
      "inputs": [
        {
          "indexed": true,
          "internalType": "address",
          "name": "from",
          "type": "address"
        },
        {
          "indexed": true,
          "internalType": "address",
          "name": "to",
          "type": "address"
        },
        {
          "indexed": false,
          "internalType": "uint256",
          "name": "value",
          "type": "uint256"
        }
      ],
      "name": "Transfer",
      "type": "event"
    },
    {
      "inputs": [
        {
          "internalType": "address",
          "name": "owner",
          "type": "address"
        },
        {
          "internalType": "address",
          "name": "spender",
          "type": "address"
        }
      ],
      "name": "allowance",
      "outputs": [
        {
          "internalType": "uint256",
          "name": "",
          "type": "uint256"
        }
      ],
      "stateMutability": "view",
      "type": "function"
    },
    {
      "inputs": [
        {
          "internalType": "address",
          "name": "spender",
          "type": "address"
        },
        {
          "internalType": "uint256",
          "name": "value",
          "type": "uint256"
        }
      ],
      "name": "approve",
      "outputs": [
        {
          "internalType": "bool",
          "name": "",
          "type": "bool"
        }
      ],
      "stateMutability": "nonpayable",
      "type": "function"
    },
    {
      "inputs": [
        {
          "internalType": "address",
          "name": "account",
          "type": "address"
        }
      ],
      "name": "balanceOf",
      "outputs": [
        {
          "internalType": "uint256",
          "name": "",
          "type": "uint256"
        }
      ],
      "stateMutability": "view",
      "type": "function"
    },
    {
      "inputs": [
        {
          "internalType": "address",
          "name": "account",
          "type": "address"
        },
        {
          "internalType": "uint256",
          "name": "value",
          "type": "uint256"
        }
      ],
      "name": "burn",
      "outputs": [],
      "stateMutability": "nonpayable",
      "type": "function"
    },
    {
      "inputs": [],
      "name": "cap",
      "outputs": [
        {
          "internalType": "uint256",
          "name": "",
          "type": "uint256"
        }
      ],
      "stateMutability": "view",
      "type": "function"
    },
    {
      "inputs": [],
      "name": "decimals",
      "outputs": [
        {
          "internalType": "uint8",
          "name": "",
          "type": "uint8"
        }
      ],
      "stateMutability": "view",
      "type": "function"
    },
    {
      "inputs": [
        {
          "internalType": "address",
          "name": "account",
          "type": "address"
        },
        {
          "internalType": "uint256",
          "name": "value",
          "type": "uint256"
        }
      ],
      "name": "mint",
      "outputs": [],
      "stateMutability": "nonpayable",
      "type": "function"
    },
    {
      "inputs": [],
      "name": "name",
      "outputs": [
        {
          "internalType": "string",
          "name": "",
          "type": "string"
        }
      ],
      "stateMutability": "view",
      "type": "function"
    },
    {
      "inputs": [],
      "name": "owner",
      "outputs": [
        {
          "internalType": "address",
          "name": "",
          "type": "address"
        }
      ],
      "stateMutability": "view",
      "type": "function"
    },
    {
      "inputs": [],
      "name": "renounceOwnership",
      "outputs": [],
      "stateMutability": "nonpayable",
      "type": "function"
    },
    {
      "inputs": [],
      "name": "symbol",
      "outputs": [
        {
          "internalType": "string",
          "name": "",
          "type": "string"
        }
      ],
      "stateMutability": "view",
      "type": "function"
    },
    {
      "inputs": [],
      "name": "totalSupply",
      "outputs": [
        {
          "internalType": "uint256",
          "name": "",
          "type": "uint256"
        }
      ],
      "stateMutability": "view",
      "type": "function"
    },
    {
      "inputs": [
        {
          "internalType": "address",
          "name": "to",
          "type": "address"
        },
        {
          "internalType": "uint256",
          "name": "value",
          "type": "uint256"
        }
      ],
      "name": "transfer",
      "outputs": [
        {
          "internalType": "bool",
          "name": "",
          "type": "bool"
        }
      ],
      "stateMutability": "nonpayable",
      "type": "function"
    },
    {
      "inputs": [
        {
          "internalType": "address",
          "name": "from",
          "type": "address"
        },
        {
          "internalType": "address",
          "name": "to",
          "type": "address"
        },
        {
          "internalType": "uint256",
          "name": "value",
          "type": "uint256"
        }
      ],
      "name": "transferFrom",
      "outputs": [
        {
          "internalType": "bool",
          "name": "",
          "type": "bool"
        }
      ],
      "stateMutability": "nonpayable",
      "type": "function"
    },
    {
      "inputs": [
        {
          "internalType": "address",
          "name": "newOwner",
          "type": "address"
        }
      ],
      "name": "transferOwnership",
      "outputs": [],
      "stateMutability": "nonpayable",
      "type": "function"
    }
  ],
  "bytecode": "0x60a060405234801562000010575f80fd5b5060405162000ed738038062000ed78339810160408190526200003391620001a0565b620000416012600a620002ed565b6200004d908462000304565b816040518060400160405280600381526020016211185b60ea1b8152506040518060400160405280600381526020016211105360ea1b8152508160039081620000979190620003bc565b506004620000a68282620003bc565b5050506001600160a01b038116620000d857604051631e4fbdf760e01b81525f60048201526024015b60405180910390fd5b620000e38162000133565b50805f03620001085760405163392e1e2760e01b81525f6004820152602401620000cf565b60805250600680546001600160a01b0319166001600160a01b03929092169190911790555062000488565b600580546001600160a01b038381166001600160a01b0319831681179093556040519116919082907f8be0079c531659141344cd1fd0a4f28419497f9722a3daafe3b4186f6b6457e0905f90a35050565b80516001600160a01b03811681146200019b575f80fd5b919050565b5f805f60608486031215620001b3575f80fd5b83519250620001c56020850162000184565b9150620001d56040850162000184565b90509250925092565b634e487b7160e01b5f52601160045260245ffd5b600181815b808511156200023257815f1904821115620002165762000216620001de565b808516156200022457918102915b93841c9390800290620001f7565b509250929050565b5f826200024a57506001620002e7565b816200025857505f620002e7565b81600181146200027157600281146200027c576200029c565b6001915050620002e7565b60ff841115620002905762000290620001de565b50506001821b620002e7565b5060208310610133831016604e8410600b8410161715620002c1575081810a620002e7565b620002cd8383620001f2565b805f1904821115620002e357620002e3620001de565b0290505b92915050565b5f620002fd60ff8416836200023a565b9392505050565b8082028115828204841417620002e757620002e7620001de565b634e487b7160e01b5f52604160045260245ffd5b600181811c908216806200034757607f821691505b6020821081036200036657634e487b7160e01b5f52602260045260245ffd5b50919050565b601f821115620003b757805f5260205f20601f840160051c81016020851015620003935750805b601f840160051c820191505b81811015620003b4575f81556001016200039f565b50505b505050565b81516001600160401b03811115620003d857620003d86200031e565b620003f081620003e9845462000332565b846200036c565b602080601f83116001811462000426575f84156200040e5750858301515b5f19600386901b1c1916600185901b17855562000480565b5f85815260208120601f198616915b82811015620004565788860151825594840194600190910190840162000435565b50858210156200047457878501515f19600388901b60f8161c191681555b505060018460011b0185555b505050505050565b608051610a2f620004a85f395f818161016b01526107110152610a2f5ff3fe608060405234801561000f575f80fd5b50600436106100f0575f3560e01c806370a08231116100935780639dc29fac116100635780639dc29fac146101f7578063a9059cbb1461020a578063dd62ed3e1461021d578063f2fde38b14610255575f80fd5b806370a08231146101a4578063715018a6146101cc5780638da5cb5b146101d457806395d89b41146101ef575f80fd5b806323b872dd116100ce57806323b872dd14610147578063313ce5671461015a578063355274ea1461016957806340c10f191461018f575f80fd5b806306fdde03146100f4578063095ea7b31461011257806318160ddd14610135575b5f80fd5b6100fc610268565b6040516101099190610889565b60405180910390f35b6101256101203660046108f0565b6102f8565b6040519015158152602001610109565b6002545b604051908152602001610109565b610125610155366004610918565b610311565b60405160128152602001610109565b7f0000000000000000000000000000000000000000000000000000000000000000610139565b6101a261019d3660046108f0565b610334565b005b6101396101b2366004610951565b6001600160a01b03165f9081526020819052604090205490565b6101a261038d565b6005546040516001600160a01b039091168152602001610109565b6100fc6103a0565b6101a26102053660046108f0565b6103af565b6101256102183660046108f0565b6103f8565b61013961022b366004610971565b6001600160a01b039182165f90815260016020908152604080832093909416825291909152205490565b6101a2610263366004610951565b610405565b606060038054610277906109a2565b80601f01602080910402602001604051908101604052809291908181526020018280546102a3906109a2565b80156102ee5780601f106102c5576101008083540402835291602001916102ee565b820191905f5260205f20905b8154815290600101906020018083116102d157829003601f168201915b5050505050905090565b5f33610305818585610447565b60019150505b92915050565b5f3361031e858285610459565b6103298585856104d4565b506001949350505050565b61033c610531565b610346828261055e565b604080516001600160a01b0384168152602081018390527f0f6798a560793a54c3bcfe86a93cde1e73087d944c0ea20544137d412139688591015b60405180910390a15050565b610395610531565b61039e5f610596565b565b606060048054610277906109a2565b6103b982826105e7565b604080516001600160a01b0384168152602081018390527fcc16f5dbb4873280815c1ee09dbd06736cffcc184412cf7a71a0fdb75d397ca59101610381565b5f336103058185856104d4565b61040d610531565b6001600160a01b03811661043b57604051631e4fbdf760e01b81525f60048201526024015b60405180910390fd5b61044481610596565b50565b610454838383600161061b565b505050565b6001600160a01b038381165f908152600160209081526040808320938616835292905220545f1981146104ce57818110156104c057604051637dc7a0d960e11b81526001600160a01b03841660048201526024810182905260448101839052606401610432565b6104ce84848484035f61061b565b50505050565b6001600160a01b0383166104fd57604051634b637e8f60e11b81525f6004820152602401610432565b6001600160a01b0382166105265760405163ec442f0560e01b81525f6004820152602401610432565b6104548383836106ed565b6005546001600160a01b0316331461039e5760405163118cdaa760e01b8152336004820152602401610432565b6001600160a01b0382166105875760405163ec442f0560e01b81525f6004820152602401610432565b6105925f83836106ed565b5050565b600580546001600160a01b038381166001600160a01b0319831681179093556040519116919082907f8be0079c531659141344cd1fd0a4f28419497f9722a3daafe3b4186f6b6457e0905f90a35050565b6001600160a01b03821661061057604051634b637e8f60e11b81525f6004820152602401610432565b610592825f836106ed565b6001600160a01b0384166106445760405163e602df0560e01b81525f6004820152602401610432565b6001600160a01b03831661066d57604051634a1406b160e11b81525f6004820152602401610432565b6001600160a01b038085165f90815260016020908152604080832093871683529290522082905580156104ce57826001600160a01b0316846001600160a01b03167f8c5be1e5ebec7d5bd14f71427d1e84f3dd0314c0f7b2291e5b200ac8c7c3b925846040516106df91815260200190565b60405180910390a350505050565b6104548383836106fe838383610763565b6001600160a01b038316610454576002547f0000000000000000000000000000000000000000000000000000000000000000908181111561075c5760405163279e7e1560e21b81526004810182905260248101839052604401610432565b5050505050565b6001600160a01b03831661078d578060025f82825461078291906109da565b909155506107fd9050565b6001600160a01b0383165f90815260208190526040902054818110156107df5760405163391434e360e21b81526001600160a01b03851660048201526024810182905260448101839052606401610432565b6001600160a01b0384165f9081526020819052604090209082900390555b6001600160a01b03821661081957600280548290039055610837565b6001600160a01b0382165f9081526020819052604090208054820190555b816001600160a01b0316836001600160a01b03167fddf252ad1be2c89b69c2b068fc378daa952ba7f163c4a11628f55a4df523b3ef8360405161087c91815260200190565b60405180910390a3505050565b5f602080835283518060208501525f5b818110156108b557858101830151858201604001528201610899565b505f604082860101526040601f19601f8301168501019250505092915050565b80356001600160a01b03811681146108eb575f80fd5b919050565b5f8060408385031215610901575f80fd5b61090a836108d5565b946020939093013593505050565b5f805f6060848603121561092a575f80fd5b610933846108d5565b9250610941602085016108d5565b9150604084013590509250925092565b5f60208284031215610961575f80fd5b61096a826108d5565b9392505050565b5f8060408385031215610982575f80fd5b61098b836108d5565b9150610999602084016108d5565b90509250929050565b600181811c908216806109b657607f821691505b6020821081036109d457634e487b7160e01b5f52602260045260245ffd5b50919050565b8082018082111561030b57634e487b7160e01b5f52601160045260245ffdfea26469706673582212203192220bf9f4c316c1f1db601873926008a622464126f71306b55f2857743fea64736f6c63430008180033",
  "linkReferences": {},
  "deployedLinkReferences": {}
}