{
  "_format": "hh-sol-artifact-1",
  "contractName": "MaterialItem",
  "sourceName": "contracts/erc-721/MaterialItem.sol",
  "abi": [
    {
      "inputs": [
        {
          "internalType": "string",
          "name": "name_",
          "type": "string"
        },
        {
          "internalType": "string",
          "name": "symbol_",
          "type": "string"
        },
        {
          "internalType": "string",
          "name": "metadataUri",
          "type": "string"
        },
        {
          "internalType": "address",
          "name": "serviceContract",
          "type": "address"
        },
        {
          "internalType": "address",
          "name": "admin",
          "type": "address"
        }
      ],
      "stateMutability": "nonpayable",
      "type": "constructor"
    },
    {
      "inputs": [],
      "name": "AccessControlBadConfirmation",
      "type": "error"
    },
    {
      "inputs": [
        {
          "internalType": "address",
          "name": "account",
          "type": "address"
        },
        {
          "internalType": "bytes32",
          "name": "neededRole",
          "type": "bytes32"
        }
      ],
      "name": "AccessControlUnauthorizedAccount",
      "type": "error"
    },
    {
      "inputs": [],
      "name": "ERC721EnumerableForbiddenBatchMint",
      "type": "error"
    },
    {
      "inputs": [
        {
          "internalType": "address",
          "name": "sender",
          "type": "address"
        },
        {
          "internalType": "uint256",
          "name": "tokenId",
          "type": "uint256"
        },
        {
          "internalType": "address",
          "name": "owner",
          "type": "address"
        }
      ],
      "name": "ERC721IncorrectOwner",
      "type": "error"
    },
    {
      "inputs": [
        {
          "internalType": "address",
          "name": "operator",
          "type": "address"
        },
        {
          "internalType": "uint256",
          "name": "tokenId",
          "type": "uint256"
        }
      ],
      "name": "ERC721InsufficientApproval",
      "type": "error"
    },
    {
      "inputs": [
        {
          "internalType": "address",
          "name": "approver",
          "type": "address"
        }
      ],
      "name": "ERC721InvalidApprover",
      "type": "error"
    },
    {
      "inputs": [
        {
          "internalType": "address",
          "name": "operator",
          "type": "address"
        }
      ],
      "name": "ERC721InvalidOperator",
      "type": "error"
    },
    {
      "inputs": [
        {
          "internalType": "address",
          "name": "owner",
          "type": "address"
        }
      ],
      "name": "ERC721InvalidOwner",
      "type": "error"
    },
    {
      "inputs": [
        {
          "internalType": "address",
          "name": "receiver",
          "type": "address"
        }
      ],
      "name": "ERC721InvalidReceiver",
      "type": "error"
    },
    {
      "inputs": [
        {
          "internalType": "address",
          "name": "sender",
          "type": "address"
        }
      ],
      "name": "ERC721InvalidSender",
      "type": "error"
    },
    {
      "inputs": [
        {
          "internalType": "uint256",
          "name": "tokenId",
          "type": "uint256"
        }
      ],
      "name": "ERC721NonexistentToken",
      "type": "error"
    },
    {
      "inputs": [
        {
          "internalType": "address",
          "name": "owner",
          "type": "address"
        },
        {
          "internalType": "uint256",
          "name": "index",
          "type": "uint256"
        }
      ],
      "name": "ERC721OutOfBoundsIndex",
      "type": "error"
    },
    {
      "anonymous": false,
      "inputs": [
        {
          "indexed": true,
          "internalType": "address",
          "name": "owner",
          "type": "address"
        },
        {
          "indexed": true,
          "internalType": "address",
          "name": "approved",
          "type": "address"
        },
        {
          "indexed": true,
          "internalType": "uint256",
          "name": "tokenId",
          "type": "uint256"
        }
      ],
      "name": "Approval",
      "type": "event"
    },
    {
      "anonymous": false,
      "inputs": [
        {
          "indexed": true,
          "internalType": "address",
          "name": "owner",
          "type": "address"
        },
        {
          "indexed": true,
          "internalType": "address",
          "name": "operator",
          "type": "address"
        },
        {
          "indexed": false,
          "internalType": "bool",
          "name": "approved",
          "type": "bool"
        }
      ],
      "name": "ApprovalForAll",
      "type": "event"
    },
    {
      "anonymous": false,
      "inputs": [
        {
          "indexed": false,
          "internalType": "uint256",
          "name": "_fromTokenId",
          "type": "uint256"
        },
        {
          "indexed": false,
          "internalType": "uint256",
          "name": "_toTokenId",
          "type": "uint256"
        }
      ],
      "name": "BatchMetadataUpdate",
      "type": "event"
    },
    {
      "anonymous": false,
      "inputs": [
        {
          "indexed": false,
          "internalType": "address",
          "name": "from",
          "type": "address"
        },
        {
          "indexed": false,
          "internalType": "uint256",
          "name": "tokenId",
          "type": "uint256"
        }
      ],
      "name": "Burn",
      "type": "event"
    },
    {
      "anonymous": false,
      "inputs": [
        {
          "indexed": false,
          "internalType": "uint256",
          "name": "_tokenId",
          "type": "uint256"
        }
      ],
      "name": "MetadataUpdate",
      "type": "event"
    },
    {
      "anonymous": false,
      "inputs": [
        {
          "indexed": false,
          "internalType": "address",
          "name": "to",
          "type": "address"
        },
        {
          "indexed": false,
          "internalType": "uint256",
          "name": "tokenId",
          "type": "uint256"
        }
      ],
      "name": "Mint",
      "type": "event"
    },
    {
      "anonymous": false,
      "inputs": [
        {
          "indexed": true,
          "internalType": "bytes32",
          "name": "role",
          "type": "bytes32"
        },
        {
          "indexed": true,
          "internalType": "bytes32",
          "name": "previousAdminRole",
          "type": "bytes32"
        },
        {
          "indexed": true,
          "internalType": "bytes32",
          "name": "newAdminRole",
          "type": "bytes32"
        }
      ],
      "name": "RoleAdminChanged",
      "type": "event"
    },
    {
      "anonymous": false,
      "inputs": [
        {
          "indexed": true,
          "internalType": "bytes32",
          "name": "role",
          "type": "bytes32"
        },
        {
          "indexed": true,
          "internalType": "address",
          "name": "account",
          "type": "address"
        },
        {
          "indexed": true,
          "internalType": "address",
          "name": "sender",
          "type": "address"
        }
      ],
      "name": "RoleGranted",
      "type": "event"
    },
    {
      "anonymous": false,
      "inputs": [
        {
          "indexed": true,
          "internalType": "bytes32",
          "name": "role",
          "type": "bytes32"
        },
        {
          "indexed": true,
          "internalType": "address",
          "name": "account",
          "type": "address"
        },
        {
          "indexed": true,
          "internalType": "address",
          "name": "sender",
          "type": "address"
        }
      ],
      "name": "RoleRevoked",
      "type": "event"
    },
    {
      "anonymous": false,
      "inputs": [
        {
          "indexed": true,
          "internalType": "address",
          "name": "from",
          "type": "address"
        },
        {
          "indexed": true,
          "internalType": "address",
          "name": "to",
          "type": "address"
        },
        {
          "indexed": true,
          "internalType": "uint256",
          "name": "tokenId",
          "type": "uint256"
        }
      ],
      "name": "Transfer",
      "type": "event"
    },
    {
      "inputs": [],
      "name": "DEFAULT_ADMIN_ROLE",
      "outputs": [
        {
          "internalType": "bytes32",
          "name": "",
          "type": "bytes32"
        }
      ],
      "stateMutability": "view",
      "type": "function"
    },
    {
      "inputs": [],
      "name": "MINTER_ROLE",
      "outputs": [
        {
          "internalType": "bytes32",
          "name": "",
          "type": "bytes32"
        }
      ],
      "stateMutability": "view",
      "type": "function"
    },
    {
      "inputs": [
        {
          "internalType": "address",
          "name": "to",
          "type": "address"
        },
        {
          "internalType": "uint256",
          "name": "tokenId",
          "type": "uint256"
        }
      ],
      "name": "approve",
      "outputs": [],
      "stateMutability": "nonpayable",
      "type": "function"
    },
    {
      "inputs": [
        {
          "internalType": "address",
          "name": "owner",
          "type": "address"
        }
      ],
      "name": "balanceOf",
      "outputs": [
        {
          "internalType": "uint256",
          "name": "",
          "type": "uint256"
        }
      ],
      "stateMutability": "view",
      "type": "function"
    },
    {
      "inputs": [
        {
          "internalType": "address",
          "name": "from",
          "type": "address"
        },
        {
          "internalType": "uint256",
          "name": "tokenId",
          "type": "uint256"
        }
      ],
      "name": "burn",
      "outputs": [],
      "stateMutability": "nonpayable",
      "type": "function"
    },
    {
      "inputs": [
        {
          "internalType": "uint256",
          "name": "tokenId",
          "type": "uint256"
        }
      ],
      "name": "getApproved",
      "outputs": [
        {
          "internalType": "address",
          "name": "",
          "type": "address"
        }
      ],
      "stateMutability": "view",
      "type": "function"
    },
    {
      "inputs": [],
      "name": "getBaseURI",
      "outputs": [
        {
          "internalType": "string",
          "name": "",
          "type": "string"
        }
      ],
      "stateMutability": "view",
      "type": "function"
    },
    {
      "inputs": [
        {
          "internalType": "bytes32",
          "name": "role",
          "type": "bytes32"
        }
      ],
      "name": "getRoleAdmin",
      "outputs": [
        {
          "internalType": "bytes32",
          "name": "",
          "type": "bytes32"
        }
      ],
      "stateMutability": "view",
      "type": "function"
    },
    {
      "inputs": [
        {
          "internalType": "address",
          "name": "minter",
          "type": "address"
        }
      ],
      "name": "grantMinterRole",
      "outputs": [],
      "stateMutability": "nonpayable",
      "type": "function"
    },
    {
      "inputs": [
        {
          "internalType": "bytes32",
          "name": "role",
          "type": "bytes32"
        },
        {
          "internalType": "address",
          "name": "account",
          "type": "address"
        }
      ],
      "name": "grantRole",
      "outputs": [],
      "stateMutability": "nonpayable",
      "type": "function"
    },
    {
      "inputs": [
        {
          "internalType": "bytes32",
          "name": "role",
          "type": "bytes32"
        },
        {
          "internalType": "address",
          "name": "account",
          "type": "address"
        }
      ],
      "name": "hasRole",
      "outputs": [
        {
          "internalType": "bool",
          "name": "",
          "type": "bool"
        }
      ],
      "stateMutability": "view",
      "type": "function"
    },
    {
      "inputs": [
        {
          "internalType": "address",
          "name": "owner",
          "type": "address"
        },
        {
          "internalType": "address",
          "name": "operator",
          "type": "address"
        }
      ],
      "name": "isApprovedForAll",
      "outputs": [
        {
          "internalType": "bool",
          "name": "",
          "type": "bool"
        }
      ],
      "stateMutability": "view",
      "type": "function"
    },
    {
      "inputs": [
        {
          "internalType": "address",
          "name": "_to",
          "type": "address"
        }
      ],
      "name": "mint",
      "outputs": [
        {
          "internalType": "uint256",
          "name": "",
          "type": "uint256"
        }
      ],
      "stateMutability": "nonpayable",
      "type": "function"
    },
    {
      "inputs": [],
      "name": "name",
      "outputs": [
        {
          "internalType": "string",
          "name": "",
          "type": "string"
        }
      ],
      "stateMutability": "view",
      "type": "function"
    },
    {
      "inputs": [
        {
          "internalType": "uint256",
          "name": "tokenId",
          "type": "uint256"
        }
      ],
      "name": "ownerOf",
      "outputs": [
        {
          "internalType": "address",
          "name": "",
          "type": "address"
        }
      ],
      "stateMutability": "view",
      "type": "function"
    },
    {
      "inputs": [
        {
          "internalType": "bytes32",
          "name": "role",
          "type": "bytes32"
        },
        {
          "internalType": "address",
          "name": "callerConfirmation",
          "type": "address"
        }
      ],
      "name": "renounceRole",
      "outputs": [],
      "stateMutability": "nonpayable",
      "type": "function"
    },
    {
      "inputs": [
        {
          "internalType": "address",
          "name": "minter",
          "type": "address"
        }
      ],
      "name": "revokeMinterRole",
      "outputs": [],
      "stateMutability": "nonpayable",
      "type": "function"
    },
    {
      "inputs": [
        {
          "internalType": "bytes32",
          "name": "role",
          "type": "bytes32"
        },
        {
          "internalType": "address",
          "name": "account",
          "type": "address"
        }
      ],
      "name": "revokeRole",
      "outputs": [],
      "stateMutability": "nonpayable",
      "type": "function"
    },
    {
      "inputs": [
        {
          "internalType": "address",
          "name": "from",
          "type": "address"
        },
        {
          "internalType": "address",
          "name": "to",
          "type": "address"
        },
        {
          "internalType": "uint256",
          "name": "tokenId",
          "type": "uint256"
        }
      ],
      "name": "safeTransferFrom",
      "outputs": [],
      "stateMutability": "nonpayable",
      "type": "function"
    },
    {
      "inputs": [
        {
          "internalType": "address",
          "name": "from",
          "type": "address"
        },
        {
          "internalType": "address",
          "name": "to",
          "type": "address"
        },
        {
          "internalType": "uint256",
          "name": "tokenId",
          "type": "uint256"
        },
        {
          "internalType": "bytes",
          "name": "data",
          "type": "bytes"
        }
      ],
      "name": "safeTransferFrom",
      "outputs": [],
      "stateMutability": "nonpayable",
      "type": "function"
    },
    {
      "inputs": [
        {
          "internalType": "address",
          "name": "operator",
          "type": "address"
        },
        {
          "internalType": "bool",
          "name": "approved",
          "type": "bool"
        }
      ],
      "name": "setApprovalForAll",
      "outputs": [],
      "stateMutability": "nonpayable",
      "type": "function"
    },
    {
      "inputs": [
        {
          "internalType": "string",
          "name": "baseURI_",
          "type": "string"
        }
      ],
      "name": "setBaseURI",
      "outputs": [],
      "stateMutability": "nonpayable",
      "type": "function"
    },
    {
      "inputs": [
        {
          "internalType": "bytes4",
          "name": "interfaceId",
          "type": "bytes4"
        }
      ],
      "name": "supportsInterface",
      "outputs": [
        {
          "internalType": "bool",
          "name": "",
          "type": "bool"
        }
      ],
      "stateMutability": "view",
      "type": "function"
    },
    {
      "inputs": [],
      "name": "symbol",
      "outputs": [
        {
          "internalType": "string",
          "name": "",
          "type": "string"
        }
      ],
      "stateMutability": "view",
      "type": "function"
    },
    {
      "inputs": [
        {
          "internalType": "uint256",
          "name": "index",
          "type": "uint256"
        }
      ],
      "name": "tokenByIndex",
      "outputs": [
        {
          "internalType": "uint256",
          "name": "",
          "type": "uint256"
        }
      ],
      "stateMutability": "view",
      "type": "function"
    },
    {
      "inputs": [
        {
          "internalType": "address",
          "name": "owner",
          "type": "address"
        },
        {
          "internalType": "uint256",
          "name": "index",
          "type": "uint256"
        }
      ],
      "name": "tokenOfOwnerByIndex",
      "outputs": [
        {
          "internalType": "uint256",
          "name": "",
          "type": "uint256"
        }
      ],
      "stateMutability": "view",
      "type": "function"
    },
    {
      "inputs": [
        {
          "internalType": "uint256",
          "name": "tokenId",
          "type": "uint256"
        }
      ],
      "name": "tokenURI",
      "outputs": [
        {
          "internalType": "string",
          "name": "",
          "type": "string"
        }
      ],
      "stateMutability": "view",
      "type": "function"
    },
    {
      "inputs": [
        {
          "internalType": "address",
          "name": "_owner",
          "type": "address"
        }
      ],
      "name": "tokensOfOwner",
      "outputs": [
        {
          "internalType": "uint256[]",
          "name": "",
          "type": "uint256[]"
        }
      ],
      "stateMutability": "view",
      "type": "function"
    },
    {
      "inputs": [],
      "name": "totalSupply",
      "outputs": [
        {
          "internalType": "uint256",
          "name": "",
          "type": "uint256"
        }
      ],
      "stateMutability": "view",
      "type": "function"
    },
    {
      "inputs": [
        {
          "internalType": "address",
          "name": "from",
          "type": "address"
        },
        {
          "internalType": "address",
          "name": "to",
          "type": "address"
        },
        {
          "internalType": "uint256",
          "name": "tokenId",
          "type": "uint256"
        }
      ],
      "name": "transferFrom",
      "outputs": [],
      "stateMutability": "nonpayable",
      "type": "function"
    }
  ],
  "bytecode": "0x608060405234801562000010575f80fd5b50604051620020d1380380620020d18339810160408190526200003391620002cc565b8484600162000043838262000405565b50600262000052828262000405565b506200006391505f905082620000ba565b50620000705f83620000ba565b506200009d7ff0887ba65ee2024ea881d91b74c2450ef19e1557f03bed3ea9f16b037cbe2dc983620000ba565b50620000a98362000166565b50506001600d5550620004d1915050565b5f828152602081815260408083206001600160a01b038516845290915281205460ff166200015d575f838152602081815260408083206001600160a01b03861684529091529020805460ff19166001179055620001143390565b6001600160a01b0316826001600160a01b0316847f2f8788117e7eff1d82e926ec794901d17c78024a50270940304540a733656f0d60405160405180910390a450600162000160565b505f5b92915050565b5f620001728162000185565b600c62000180838262000405565b505050565b62000191813362000194565b50565b5f828152602081815260408083206001600160a01b038516845290915290205460ff16620001eb5760405163e2517d3f60e01b81526001600160a01b03821660048201526024810183905260440160405180910390fd5b5050565b634e487b7160e01b5f52604160045260245ffd5b5f82601f83011262000213575f80fd5b81516001600160401b0380821115620002305762000230620001ef565b604051601f8301601f19908116603f011681019082821181831017156200025b576200025b620001ef565b816040528381526020925086602085880101111562000278575f80fd5b5f91505b838210156200029b57858201830151818301840152908201906200027c565b5f602085830101528094505050505092915050565b80516001600160a01b0381168114620002c7575f80fd5b919050565b5f805f805f60a08688031215620002e1575f80fd5b85516001600160401b0380821115620002f8575f80fd5b6200030689838a0162000203565b965060208801519150808211156200031c575f80fd5b6200032a89838a0162000203565b9550604088015191508082111562000340575f80fd5b506200034f8882890162000203565b9350506200036060608701620002b0565b91506200037060808701620002b0565b90509295509295909350565b600181811c908216806200039157607f821691505b602082108103620003b057634e487b7160e01b5f52602260045260245ffd5b50919050565b601f8211156200018057805f5260205f20601f840160051c81016020851015620003dd5750805b601f840160051c820191505b81811015620003fe575f8155600101620003e9565b5050505050565b81516001600160401b03811115620004215762000421620001ef565b62000439816200043284546200037c565b84620003b6565b602080601f8311600181146200046f575f8415620004575750858301515b5f19600386901b1c1916600185901b178555620004c9565b5f85815260208120601f198616915b828110156200049f578886015182559484019460019091019084016200047e565b5085821015620004bd57878501515f19600388901b60f8161c191681555b505060018460011b0185555b505050505050565b611bf280620004df5f395ff3fe608060405234801561000f575f80fd5b50600436106101d1575f3560e01c806369e2f0fb116100fe5780639dc29fac1161009e578063c87b56dd1161006e578063c87b56dd146103ed578063d539139314610400578063d547741f14610414578063e985e9c514610427575f80fd5b80639dc29fac146103ad578063a217fddf146103c0578063a22cb465146103c7578063b88d4fde146103da575f80fd5b8063714c5398116100d9578063714c53981461036a5780638462151c1461037257806391d148541461039257806395d89b41146103a5575f80fd5b806369e2f0fb146103315780636a6278421461034457806370a0823114610357575f80fd5b80632f2ff15d1161017457806342842e0e1161014457806342842e0e146102e55780634f6ccce7146102f857806355f804b31461030b5780636352211e1461031e575f80fd5b80632f2ff15d146102995780632f745c59146102ac57806336568abe146102bf5780633dd1eb61146102d2575f80fd5b8063095ea7b3116101af578063095ea7b31461023d57806318160ddd1461025257806323b872dd14610264578063248a9ca314610277575f80fd5b806301ffc9a7146101d557806306fdde03146101fd578063081812fc14610212575b5f80fd5b6101e86101e3366004611643565b61043a565b60405190151581526020015b60405180910390f35b61020561044a565b6040516101f491906116ab565b6102256102203660046116bd565b6104da565b6040516001600160a01b0390911681526020016101f4565b61025061024b3660046116ef565b610501565b005b600a545b6040519081526020016101f4565b610250610272366004611717565b610510565b6102566102853660046116bd565b5f9081526020819052604090206001015490565b6102506102a7366004611750565b61059e565b6102566102ba3660046116ef565b6105c2565b6102506102cd366004611750565b610625565b6102506102e036600461177a565b61065d565b6102506102f3366004611717565b61067e565b6102566103063660046116bd565b610698565b61025061031936600461181a565b6106ed565b61022561032c3660046116bd565b610703565b61025061033f36600461177a565b61070d565b61025661035236600461177a565b61072e565b61025661036536600461177a565b6107b2565b6102056107f7565b61038561038036600461177a565b610806565b6040516101f4919061185f565b6101e86103a0366004611750565b61089b565b6102056108c3565b6102506103bb3660046116ef565b6108d2565b6102565f81565b6102506103d53660046118a2565b61091d565b6102506103e83660046118db565b610928565b6102056103fb3660046116bd565b61093f565b6102565f80516020611b9d83398151915281565b610250610422366004611750565b61094a565b6101e8610435366004611952565b61096e565b5f6104448261099b565b92915050565b6060600180546104599061197a565b80601f01602080910402602001604051908101604052809291908181526020018280546104859061197a565b80156104d05780601f106104a7576101008083540402835291602001916104d0565b820191905f5260205f20905b8154815290600101906020018083116104b357829003601f168201915b5050505050905090565b5f6104e4826109bf565b505f828152600560205260409020546001600160a01b0316610444565b61050c8282336109f7565b5050565b6001600160a01b03821661053e57604051633250574960e11b81525f60048201526024015b60405180910390fd5b5f61054a838333610a04565b9050836001600160a01b0316816001600160a01b031614610598576040516364283d7b60e01b81526001600160a01b0380861660048301526024820184905282166044820152606401610535565b50505050565b5f828152602081905260409020600101546105b881610a1a565b6105988383610a27565b5f6105cc836107b2565b82106105fd5760405163295f44f760e21b81526001600160a01b038416600482015260248101839052604401610535565b506001600160a01b03919091165f908152600860209081526040808320938352929052205490565b6001600160a01b038116331461064e5760405163334bd91960e11b815260040160405180910390fd5b6106588282610ab6565b505050565b5f61066781610a1a565b61050c5f80516020611b9d8339815191528361059e565b61065883838360405180602001604052805f815250610928565b5f6106a2600a5490565b82106106ca5760405163295f44f760e21b81525f600482015260248101839052604401610535565b600a82815481106106dd576106dd6119ac565b905f5260205f2001549050919050565b5f6106f781610a1a565b600c6106588382611a04565b5f610444826109bf565b5f61071781610a1a565b61050c5f80516020611b9d8339815191528361094a565b5f5f80516020611b9d83398151915261074681610a1a565b600d546107538482610b1f565b600d8054905f61076283611ad8565b9091555050604080516001600160a01b0386168152602081018390527f0f6798a560793a54c3bcfe86a93cde1e73087d944c0ea20544137d4121396885910160405180910390a191505b50919050565b5f6001600160a01b0382166107dc576040516322718ad960e21b81525f6004820152602401610535565b506001600160a01b03165f9081526004602052604090205490565b6060610801610b80565b905090565b60605f610812836107b2565b90505f8167ffffffffffffffff81111561082e5761082e611793565b604051908082528060200260200182016040528015610857578160200160208202803683370190505b5090505f5b828110156108935761086e85826105c2565b828281518110610880576108806119ac565b602090810291909101015260010161085c565b509392505050565b5f918252602082815260408084206001600160a01b0393909316845291905290205460ff1690565b6060600280546104599061197a565b604080516001600160a01b0384168152602081018390527fcc16f5dbb4873280815c1ee09dbd06736cffcc184412cf7a71a0fdb75d397ca5910160405180910390a161050c81610b8f565b61050c338383610bc7565b610933848484610510565b61059884848484610c65565b606061044482610d8b565b5f8281526020819052604090206001015461096481610a1a565b6105988383610ab6565b6001600160a01b039182165f90815260066020908152604080832093909416825291909152205460ff1690565b5f6001600160e01b0319821663780e9d6360e01b1480610444575061044482610e8a565b5f818152600360205260408120546001600160a01b03168061044457604051637e27328960e01b815260048101849052602401610535565b6106588383836001610eae565b5f80610a11858585610fb2565b95945050505050565b610a24813361107d565b50565b5f610a32838361089b565b610aaf575f838152602081815260408083206001600160a01b03861684529091529020805460ff19166001179055610a673390565b6001600160a01b0316826001600160a01b0316847f2f8788117e7eff1d82e926ec794901d17c78024a50270940304540a733656f0d60405160405180910390a4506001610444565b505f610444565b5f610ac1838361089b565b15610aaf575f838152602081815260408083206001600160a01b0386168085529252808320805460ff1916905551339286917ff6391f5c32d9c69d2a47ea670b442974b53935d1edc7fd64eb21e047a839171b9190a4506001610444565b6001600160a01b038216610b4857604051633250574960e11b81525f6004820152602401610535565b5f610b5483835f610a04565b90506001600160a01b03811615610658576040516339e3563760e11b81525f6004820152602401610535565b6060600c80546104599061197a565b5f610b9b5f835f610a04565b90506001600160a01b03811661050c57604051637e27328960e01b815260048101839052602401610535565b6001600160a01b038216610bf957604051630b61174360e31b81526001600160a01b0383166004820152602401610535565b6001600160a01b038381165f81815260066020908152604080832094871680845294825291829020805460ff191686151590811790915591519182527f17307eab39ab6107e8899845ad3d59bd9653f200f220920489ca2b5937696c31910160405180910390a3505050565b6001600160a01b0383163b1561059857604051630a85bd0160e11b81526001600160a01b0384169063150b7a0290610ca7903390889087908790600401611af0565b6020604051808303815f875af1925050508015610ce1575060408051601f3d908101601f19168201909252610cde91810190611b2c565b60015b610d48573d808015610d0e576040519150601f19603f3d011682016040523d82523d5f602084013e610d13565b606091505b5080515f03610d4057604051633250574960e11b81526001600160a01b0385166004820152602401610535565b805181602001fd5b6001600160e01b03198116630a85bd0160e11b14610d8457604051633250574960e11b81526001600160a01b0385166004820152602401610535565b5050505050565b6060610d96826109bf565b505f8281526007602052604081208054610daf9061197a565b80601f0160208091040260200160405190810160405280929190818152602001828054610ddb9061197a565b8015610e265780601f10610dfd57610100808354040283529160200191610e26565b820191905f5260205f20905b815481529060010190602001808311610e0957829003601f168201915b505050505090505f610e36610b80565b905080515f03610e47575092915050565b815115610e79578082604051602001610e61929190611b47565b60405160208183030381529060405292505050919050565b610e82846110b6565b949350505050565b5f6001600160e01b03198216632483248360e11b148061044457506104448261111b565b8080610ec257506001600160a01b03821615155b15610f83575f610ed1846109bf565b90506001600160a01b03831615801590610efd5750826001600160a01b0316816001600160a01b031614155b8015610f105750610f0e818461096e565b155b15610f395760405163a9fbf51f60e01b81526001600160a01b0384166004820152602401610535565b8115610f815783856001600160a01b0316826001600160a01b03167f8c5be1e5ebec7d5bd14f71427d1e84f3dd0314c0f7b2291e5b200ac8c7c3b92560405160405180910390a45b505b50505f90815260056020526040902080546001600160a01b0319166001600160a01b0392909216919091179055565b5f80610fbf85858561115a565b90506001600160a01b03811661101b5761101684600a80545f838152600b60205260408120829055600182018355919091527fc65a7bb8d6351c1cf70c95a316cc6a92839c986682d98bc35f958f4883f9d2a80155565b61103e565b846001600160a01b0316816001600160a01b03161461103e5761103e818561124c565b6001600160a01b03851661105a57611055846112d9565b610e82565b846001600160a01b0316816001600160a01b031614610e8257610e828585611380565b611087828261089b565b61050c5760405163e2517d3f60e01b81526001600160a01b038216600482015260248101839052604401610535565b60606110c1826109bf565b505f6110cb610b80565b90505f8151116110e95760405180602001604052805f815250611114565b806110f3846113ce565b604051602001611104929190611b47565b6040516020818303038152906040525b9392505050565b5f6001600160e01b031982166380ac58cd60e01b148061114b57506001600160e01b03198216635b5e139f60e01b145b8061044457506104448261145e565b5f828152600360205260408120546001600160a01b039081169083161561118657611186818486611492565b6001600160a01b038116156111c0576111a15f855f80610eae565b6001600160a01b0381165f90815260046020526040902080545f190190555b6001600160a01b038516156111ee576001600160a01b0385165f908152600460205260409020805460010190555b5f8481526003602052604080822080546001600160a01b0319166001600160a01b0389811691821790925591518793918516917fddf252ad1be2c89b69c2b068fc378daa952ba7f163c4a11628f55a4df523b3ef91a4949350505050565b5f611256836107b2565b5f838152600960205260409020549091508082146112a7576001600160a01b0384165f9081526008602090815260408083208584528252808320548484528184208190558352600990915290208190555b505f9182526009602090815260408084208490556001600160a01b039094168352600881528383209183525290812055565b600a545f906112ea90600190611b75565b5f838152600b6020526040812054600a8054939450909284908110611311576113116119ac565b905f5260205f200154905080600a8381548110611330576113306119ac565b5f918252602080832090910192909255828152600b9091526040808220849055858252812055600a80548061136757611367611b88565b600190038181905f5260205f20015f9055905550505050565b5f600161138c846107b2565b6113969190611b75565b6001600160a01b039093165f908152600860209081526040808320868452825280832085905593825260099052919091209190915550565b60605f6113da836114f6565b60010190505f8167ffffffffffffffff8111156113f9576113f9611793565b6040519080825280601f01601f191660200182016040528015611423576020820181803683370190505b5090508181016020015b5f19016f181899199a1a9b1b9c1cb0b131b232b360811b600a86061a8153600a850494508461142d57509392505050565b5f6001600160e01b03198216637965db0b60e01b148061044457506301ffc9a760e01b6001600160e01b0319831614610444565b61149d8383836115cd565b610658576001600160a01b0383166114cb57604051637e27328960e01b815260048101829052602401610535565b60405163177e802f60e01b81526001600160a01b038316600482015260248101829052604401610535565b5f8072184f03e93ff9f4daa797ed6e38ed64bf6a1f0160401b83106115345772184f03e93ff9f4daa797ed6e38ed64bf6a1f0160401b830492506040015b6d04ee2d6d415b85acef81000000008310611560576d04ee2d6d415b85acef8100000000830492506020015b662386f26fc10000831061157e57662386f26fc10000830492506010015b6305f5e1008310611596576305f5e100830492506008015b61271083106115aa57612710830492506004015b606483106115bc576064830492506002015b600a83106104445760010192915050565b5f6001600160a01b03831615801590610e825750826001600160a01b0316846001600160a01b031614806116065750611606848461096e565b80610e825750505f908152600560205260409020546001600160a01b03908116911614919050565b6001600160e01b031981168114610a24575f80fd5b5f60208284031215611653575f80fd5b81356111148161162e565b5f5b83811015611678578181015183820152602001611660565b50505f910152565b5f815180845261169781602086016020860161165e565b601f01601f19169290920160200192915050565b602081525f6111146020830184611680565b5f602082840312156116cd575f80fd5b5035919050565b80356001600160a01b03811681146116ea575f80fd5b919050565b5f8060408385031215611700575f80fd5b611709836116d4565b946020939093013593505050565b5f805f60608486031215611729575f80fd5b611732846116d4565b9250611740602085016116d4565b9150604084013590509250925092565b5f8060408385031215611761575f80fd5b82359150611771602084016116d4565b90509250929050565b5f6020828403121561178a575f80fd5b611114826116d4565b634e487b7160e01b5f52604160045260245ffd5b5f67ffffffffffffffff808411156117c1576117c1611793565b604051601f8501601f19908116603f011681019082821181831017156117e9576117e9611793565b81604052809350858152868686011115611801575f80fd5b858560208301375f602087830101525050509392505050565b5f6020828403121561182a575f80fd5b813567ffffffffffffffff811115611840575f80fd5b8201601f81018413611850575f80fd5b610e82848235602084016117a7565b602080825282518282018190525f9190848201906040850190845b818110156118965783518352928401929184019160010161187a565b50909695505050505050565b5f80604083850312156118b3575f80fd5b6118bc836116d4565b9150602083013580151581146118d0575f80fd5b809150509250929050565b5f805f80608085870312156118ee575f80fd5b6118f7856116d4565b9350611905602086016116d4565b925060408501359150606085013567ffffffffffffffff811115611927575f80fd5b8501601f81018713611937575f80fd5b611946878235602084016117a7565b91505092959194509250565b5f8060408385031215611963575f80fd5b61196c836116d4565b9150611771602084016116d4565b600181811c9082168061198e57607f821691505b6020821081036107ac57634e487b7160e01b5f52602260045260245ffd5b634e487b7160e01b5f52603260045260245ffd5b601f82111561065857805f5260205f20601f840160051c810160208510156119e55750805b601f840160051c820191505b81811015610d84575f81556001016119f1565b815167ffffffffffffffff811115611a1e57611a1e611793565b611a3281611a2c845461197a565b846119c0565b602080601f831160018114611a65575f8415611a4e5750858301515b5f19600386901b1c1916600185901b178555611abc565b5f85815260208120601f198616915b82811015611a9357888601518255948401946001909101908401611a74565b5085821015611ab057878501515f19600388901b60f8161c191681555b505060018460011b0185555b505050505050565b634e487b7160e01b5f52601160045260245ffd5b5f60018201611ae957611ae9611ac4565b5060010190565b6001600160a01b03858116825284166020820152604081018390526080606082018190525f90611b2290830184611680565b9695505050505050565b5f60208284031215611b3c575f80fd5b81516111148161162e565b5f8351611b5881846020880161165e565b835190830190611b6c81836020880161165e565b01949350505050565b8181038181111561044457610444611ac4565b634e487b7160e01b5f52603160045260245ffdfef0887ba65ee2024ea881d91b74c2450ef19e1557f03bed3ea9f16b037cbe2dc9a264697066735822122067d5dc01cf61fb6ef2c89fb84e137939d83559f1d9e0bbccdc67de2691cf823164736f6c63430008180033",
  "linkReferences": {},
  "deployedLinkReferences": {}
}