{
  "_format": "hh-sol-artifact-1",
  "contractName": "PlayDuzzle",
  "sourceName": "contracts/service/PlayDuzzle.sol",
  "abi": [
    {
      "inputs": [
        {
          "internalType": "uint256",
          "name": "capOfDalToken",
          "type": "uint256"
        },
        {
          "internalType": "string",
          "name": "bluePrintBaseUri",
          "type": "string"
        },
        {
          "internalType": "string",
          "name": "puzzlePieceBaseUri",
          "type": "string"
        }
      ],
      "stateMutability": "nonpayable",
      "type": "constructor"
    },
    {
      "inputs": [],
      "name": "AccessControlBadConfirmation",
      "type": "error"
    },
    {
      "inputs": [
        {
          "internalType": "address",
          "name": "account",
          "type": "address"
        },
        {
          "internalType": "bytes32",
          "name": "neededRole",
          "type": "bytes32"
        }
      ],
      "name": "AccessControlUnauthorizedAccount",
      "type": "error"
    },
    {
      "inputs": [],
      "name": "NotEnoughBalanceOfBlueprintItem",
      "type": "error"
    },
    {
      "inputs": [],
      "name": "NotEnoughBalanceOfMaterialItem",
      "type": "error"
    },
    {
      "inputs": [],
      "name": "SeasonIdNotFound",
      "type": "error"
    },
    {
      "inputs": [],
      "name": "SoldOutItems",
      "type": "error"
    },
    {
      "anonymous": false,
      "inputs": [
        {
          "indexed": true,
          "internalType": "bytes32",
          "name": "role",
          "type": "bytes32"
        },
        {
          "indexed": true,
          "internalType": "bytes32",
          "name": "previousAdminRole",
          "type": "bytes32"
        },
        {
          "indexed": true,
          "internalType": "bytes32",
          "name": "newAdminRole",
          "type": "bytes32"
        }
      ],
      "name": "RoleAdminChanged",
      "type": "event"
    },
    {
      "anonymous": false,
      "inputs": [
        {
          "indexed": true,
          "internalType": "bytes32",
          "name": "role",
          "type": "bytes32"
        },
        {
          "indexed": true,
          "internalType": "address",
          "name": "account",
          "type": "address"
        },
        {
          "indexed": true,
          "internalType": "address",
          "name": "sender",
          "type": "address"
        }
      ],
      "name": "RoleGranted",
      "type": "event"
    },
    {
      "anonymous": false,
      "inputs": [
        {
          "indexed": true,
          "internalType": "bytes32",
          "name": "role",
          "type": "bytes32"
        },
        {
          "indexed": true,
          "internalType": "address",
          "name": "account",
          "type": "address"
        },
        {
          "indexed": true,
          "internalType": "address",
          "name": "sender",
          "type": "address"
        }
      ],
      "name": "RoleRevoked",
      "type": "event"
    },
    {
      "anonymous": false,
      "inputs": [
        {
          "indexed": false,
          "internalType": "uint8",
          "name": "zoneId",
          "type": "uint8"
        },
        {
          "indexed": false,
          "internalType": "uint8",
          "name": "pieceCountOfZones",
          "type": "uint8"
        },
        {
          "indexed": false,
          "internalType": "address[]",
          "name": "requiredItemsForMinting",
          "type": "address[]"
        },
        {
          "indexed": false,
          "internalType": "uint8[]",
          "name": "requiredItemAmount",
          "type": "uint8[]"
        }
      ],
      "name": "SetZoneData",
      "type": "event"
    },
    {
      "anonymous": false,
      "inputs": [
        {
          "indexed": false,
          "internalType": "contract MaterialItem[]",
          "name": "itemAddresses",
          "type": "address[]"
        }
      ],
      "name": "StartSeason",
      "type": "event"
    },
    {
      "anonymous": false,
      "inputs": [
        {
          "indexed": false,
          "internalType": "uint8",
          "name": "zoneId",
          "type": "uint8"
        },
        {
          "indexed": false,
          "internalType": "uint256",
          "name": "tokenId",
          "type": "uint256"
        },
        {
          "indexed": false,
          "internalType": "address",
          "name": "to",
          "type": "address"
        }
      ],
      "name": "UnlockPuzzlePiece",
      "type": "event"
    },
    {
      "inputs": [],
      "name": "DEFAULT_ADMIN_ROLE",
      "outputs": [
        {
          "internalType": "bytes32",
          "name": "",
          "type": "bytes32"
        }
      ],
      "stateMutability": "view",
      "type": "function"
    },
    {
      "inputs": [],
      "name": "blueprintItemToken",
      "outputs": [
        {
          "internalType": "contract BlueprintItem",
          "name": "",
          "type": "address"
        }
      ],
      "stateMutability": "view",
      "type": "function"
    },
    {
      "inputs": [],
      "name": "dalToken",
      "outputs": [
        {
          "internalType": "contract Dal",
          "name": "",
          "type": "address"
        }
      ],
      "stateMutability": "view",
      "type": "function"
    },
    {
      "inputs": [],
      "name": "getAllSeasonIds",
      "outputs": [
        {
          "internalType": "uint8[]",
          "name": "_seasonIds",
          "type": "uint8[]"
        }
      ],
      "stateMutability": "view",
      "type": "function"
    },
    {
      "inputs": [
        {
          "internalType": "uint8",
          "name": "id",
          "type": "uint8"
        }
      ],
      "name": "getDataBySeasonId",
      "outputs": [
        {
          "internalType": "uint8[20]",
          "name": "pieceCountOfZones",
          "type": "uint8[20]"
        },
        {
          "internalType": "address[][]",
          "name": "requiredItemsForMinting",
          "type": "address[][]"
        },
        {
          "internalType": "uint8[][]",
          "name": "requiredItemAmount",
          "type": "uint8[][]"
        },
        {
          "internalType": "uint256",
          "name": "startedAt",
          "type": "uint256"
        }
      ],
      "stateMutability": "view",
      "type": "function"
    },
    {
      "inputs": [
        {
          "internalType": "uint8",
          "name": "id",
          "type": "uint8"
        }
      ],
      "name": "getItemMintedCountsBySeasonId",
      "outputs": [
        {
          "internalType": "contract MaterialItem[]",
          "name": "materialItemTokens",
          "type": "address[]"
        },
        {
          "internalType": "uint16[]",
          "name": "itemMaxSupplys",
          "type": "uint16[]"
        },
        {
          "internalType": "uint16[]",
          "name": "itemMinted",
          "type": "uint16[]"
        },
        {
          "internalType": "bool[]",
          "name": "mintedBlueprint",
          "type": "bool[]"
        }
      ],
      "stateMutability": "view",
      "type": "function"
    },
    {
      "inputs": [
        {
          "internalType": "uint8",
          "name": "id",
          "type": "uint8"
        }
      ],
      "name": "getPuzzlePieceMintedCountsBySeasonId",
      "outputs": [
        {
          "internalType": "uint24",
          "name": "totalPieceCount",
          "type": "uint24"
        },
        {
          "internalType": "uint24",
          "name": "mintedCount",
          "type": "uint24"
        }
      ],
      "stateMutability": "view",
      "type": "function"
    },
    {
      "inputs": [],
      "name": "getRandomItem",
      "outputs": [],
      "stateMutability": "nonpayable",
      "type": "function"
    },
    {
      "inputs": [
        {
          "internalType": "bytes32",
          "name": "role",
          "type": "bytes32"
        }
      ],
      "name": "getRoleAdmin",
      "outputs": [
        {
          "internalType": "bytes32",
          "name": "",
          "type": "bytes32"
        }
      ],
      "stateMutability": "view",
      "type": "function"
    },
    {
      "inputs": [
        {
          "internalType": "bytes32",
          "name": "role",
          "type": "bytes32"
        },
        {
          "internalType": "address",
          "name": "account",
          "type": "address"
        }
      ],
      "name": "grantRole",
      "outputs": [],
      "stateMutability": "nonpayable",
      "type": "function"
    },
    {
      "inputs": [
        {
          "internalType": "bytes32",
          "name": "role",
          "type": "bytes32"
        },
        {
          "internalType": "address",
          "name": "account",
          "type": "address"
        }
      ],
      "name": "hasRole",
      "outputs": [
        {
          "internalType": "bool",
          "name": "",
          "type": "bool"
        }
      ],
      "stateMutability": "view",
      "type": "function"
    },
    {
      "inputs": [],
      "name": "offset",
      "outputs": [
        {
          "internalType": "uint256",
          "name": "",
          "type": "uint256"
        }
      ],
      "stateMutability": "view",
      "type": "function"
    },
    {
      "inputs": [],
      "name": "puzzlePieceToken",
      "outputs": [
        {
          "internalType": "contract PuzzlePiece",
          "name": "",
          "type": "address"
        }
      ],
      "stateMutability": "view",
      "type": "function"
    },
    {
      "inputs": [
        {
          "internalType": "bytes32",
          "name": "role",
          "type": "bytes32"
        },
        {
          "internalType": "address",
          "name": "callerConfirmation",
          "type": "address"
        }
      ],
      "name": "renounceRole",
      "outputs": [],
      "stateMutability": "nonpayable",
      "type": "function"
    },
    {
      "inputs": [
        {
          "internalType": "bytes32",
          "name": "role",
          "type": "bytes32"
        },
        {
          "internalType": "address",
          "name": "account",
          "type": "address"
        }
      ],
      "name": "revokeRole",
      "outputs": [],
      "stateMutability": "nonpayable",
      "type": "function"
    },
    {
      "inputs": [
        {
          "internalType": "uint8",
          "name": "",
          "type": "uint8"
        }
      ],
      "name": "seasons",
      "outputs": [
        {
          "internalType": "uint24",
          "name": "totalPieceCount",
          "type": "uint24"
        },
        {
          "internalType": "uint24",
          "name": "mintedCount",
          "type": "uint24"
        },
        {
          "internalType": "uint256",
          "name": "startedAt",
          "type": "uint256"
        }
      ],
      "stateMutability": "view",
      "type": "function"
    },
    {
      "inputs": [
        {
          "internalType": "uint8",
          "name": "zoneId",
          "type": "uint8"
        },
        {
          "internalType": "uint8",
          "name": "pieceCount",
          "type": "uint8"
        },
        {
          "internalType": "address[]",
          "name": "requiredItemsForMinting",
          "type": "address[]"
        },
        {
          "internalType": "uint8[]",
          "name": "requiredItemAmount",
          "type": "uint8[]"
        }
      ],
      "name": "setZoneData",
      "outputs": [],
      "stateMutability": "nonpayable",
      "type": "function"
    },
    {
      "inputs": [
        {
          "internalType": "address[]",
          "name": "existedItemCollections",
          "type": "address[]"
        },
        {
          "internalType": "string[]",
          "name": "newItemNames",
          "type": "string[]"
        },
        {
          "internalType": "string[]",
          "name": "newItemSymbols",
          "type": "string[]"
        },
        {
          "internalType": "string[]",
          "name": "newItemBaseUris",
          "type": "string[]"
        },
        {
          "internalType": "uint16[]",
          "name": "maxSupplys",
          "type": "uint16[]"
        },
        {
          "internalType": "uint24",
          "name": "_totalPieceCount",
          "type": "uint24"
        }
      ],
      "name": "startSeason",
      "outputs": [],
      "stateMutability": "nonpayable",
      "type": "function"
    },
    {
      "inputs": [
        {
          "internalType": "bytes4",
          "name": "interfaceId",
          "type": "bytes4"
        }
      ],
      "name": "supportsInterface",
      "outputs": [
        {
          "internalType": "bool",
          "name": "",
          "type": "bool"
        }
      ],
      "stateMutability": "view",
      "type": "function"
    },
    {
      "inputs": [],
      "name": "thisSeasonId",
      "outputs": [
        {
          "internalType": "uint8",
          "name": "",
          "type": "uint8"
        }
      ],
      "stateMutability": "view",
      "type": "function"
    },
    {
      "inputs": [
        {
          "internalType": "uint256",
          "name": "pieceId",
          "type": "uint256"
        }
      ],
      "name": "unlockPuzzlePiece",
      "outputs": [],
      "stateMutability": "nonpayable",
      "type": "function"
    }
  ],
  "bytecode": "0x608060405234801562000010575f80fd5b506040516200a85d3803806200a85d83398101604081905262000033916200031c565b6200003f5f3362000180565b506001805460ff191690556040518390309033906200005e906200022c565b9283526001600160a01b039182166020840152166040820152606001604051809103905ff08015801562000094573d5f803e3d5ffd5b5060045f6101000a8154816001600160a01b0302191690836001600160a01b03160217905550813033604051620000cb906200023a565b620000d9939291906200038b565b604051809103905ff080158015620000f3573d5f803e3d5ffd5b5060055f6101000a8154816001600160a01b0302191690836001600160a01b031602179055508030336040516200012a9062000248565b62000138939291906200038b565b604051809103905ff08015801562000152573d5f803e3d5ffd5b50600680546001600160a01b0319166001600160a01b039290921691909117905550505f60075550620003d7565b5f828152602081815260408083206001600160a01b038516845290915281205460ff1662000223575f838152602081815260408083206001600160a01b03861684529091529020805460ff19166001179055620001da3390565b6001600160a01b0316826001600160a01b0316847f2f8788117e7eff1d82e926ec794901d17c78024a50270940304540a733656f0d60405160405180910390a450600162000226565b505f5b92915050565b610ed78062005d5a83390190565b61209e8062006c3183390190565b611b8e8062008ccf83390190565b634e487b7160e01b5f52604160045260245ffd5b5f5b83811015620002865781810151838201526020016200026c565b50505f910152565b5f82601f8301126200029e575f80fd5b81516001600160401b0380821115620002bb57620002bb62000256565b604051601f8301601f19908116603f01168101908282118183101715620002e657620002e662000256565b81604052838152866020858801011115620002ff575f80fd5b620003128460208301602089016200026a565b9695505050505050565b5f805f606084860312156200032f575f80fd5b835160208501519093506001600160401b03808211156200034e575f80fd5b6200035c878388016200028e565b9350604086015191508082111562000372575f80fd5b5062000381868287016200028e565b9150509250925092565b606081525f8451806060840152620003ab8160808501602089016200026a565b6001600160a01b0394851660208401529290931660408201526080601f909201601f1916010192915050565b61597580620003e55f395ff3fe608060405234801562000010575f80fd5b50600436106200014c575f3560e01c8063721b821a11620000c357806391d14854116200008357806391d148541462000376578063a217fddf146200038d578063ab2b61861462000395578063d547741f14620003ac578063d555654414620003c3578063d766019d14620003cd575f80fd5b8063721b821a146200029257806373282f8114620002b35780637381b90914620002dc5780637b3b22511462000305578063805a25ae1462000362575f80fd5b80632f2ff15d116200010f5780632f2ff15d146200020f57806336568abe14620002265780633ecdb064146200023d578063667837fc14620002545780636d435a1e146200025e575f80fd5b806301ffc9a7146200015057806305ff58e2146200017c578063076c02de14620001955780631aaa517414620001c2578063248a9ca314620001db575b5f80fd5b620001676200016136600462002595565b620003e1565b60405190151581526020015b60405180910390f35b620001936200018d3660046200261e565b62000418565b005b600454620001a9906001600160a01b031681565b6040516001600160a01b03909116815260200162000173565b620001cc62000598565b604051620001739190620026b7565b62000200620001ec366004620026ff565b5f9081526020819052604090206001015490565b60405190815260200162000173565b620001936200022036600462002733565b6200061b565b620001936200023736600462002733565b62000649565b620001936200024e36600462002945565b62000684565b6200019362000b4d565b620002756200026f36600462002a3a565b62001267565b6040805162ffffff93841681529290911660208301520162000173565b600154620002a09060ff1681565b60405160ff909116815260200162000173565b620002ca620002c436600462002a3a565b620012c8565b60405162000173949392919062002ada565b620002f3620002ed36600462002a3a565b6200154d565b60405162000173949392919062002c3c565b6200033f6200031636600462002a3a565b60036020525f90815260409020805460079091015462ffffff8083169263010000009004169083565b6040805162ffffff94851681529390921660208401529082015260600162000173565b600554620001a9906001600160a01b031681565b620001676200038736600462002733565b62001866565b620002005f81565b62000193620003a6366004620026ff565b6200188e565b62000193620003bd36600462002733565b62001e5f565b6200020060075481565b600654620001a9906001600160a01b031681565b5f6001600160e01b03198216637965db0b60e01b14806200041257506301ffc9a760e01b6001600160e01b03198316145b92915050565b5f620004248162001e87565b60015460ff9081165f908152600360205260409020879160049091019089166014811062000456576200045662002cc5565b6020808204909201805460ff948516601f9093166101000a928302928502191691909117905560015482165f908152600382526040808220938b168252600590930190915220620004a99086866200238f565b5060015460ff9081165f908152600360209081526040808320938b1683526006909301905220620004dc908484620023f1565b5060015460ff9081165f9081526003602052604090207f103f24af39c7e7c12ee21ffed71c10dc9dba631749ee10f3a1a08470f3ff91e7918991600401908216601481106200052f576200052f62002cc5565b6020808204929092015460015460ff9081165f9081526003855260408082208f841683526005810187528183206006909101909652908190209051620005879695601f9095166101000a909304909116929162002cd9565b60405180910390a150505050505050565b60605f620005a68162001e87565b60028054806020026020016040519081016040528092919081815260200182805480156200060f57602002820191905f5260205f20905f905b825461010083900a900460ff16815260206001928301818104948501949093039092029101808411620005df5790505b505050505091505b5090565b5f82815260208190526040902060010154620006378162001e87565b62000643838362001e96565b50505050565b6001600160a01b0381163314620006735760405163334bd91960e11b815260040160405180910390fd5b6200067f828262001f2b565b505050565b5f620006908162001e87565b60015460ff165f90815260036020526040902054600754620006b89162ffffff169062003460565b60075560025415620006f157600180545f90620006d89060ff1662003476565b91906101000a81548160ff021916908360ff1602179055505b600180546002805480840190915560208082047f405787fa12a823e0f2b7631cc41b3ba8828b3321ca811111fa75cd3aa3bb5ace018054601f9093166101000a60ff94851681029085021990931692909217909155825482165f90815260039091526040808220805462ffffff881662ffffff1990911681179091559354909216815220805465ffffff000000191690556001600160401b038111156200079c576200079c62002760565b604051908082528060200260200182016040528015620007c6578160200160208202803683370190505b5060015460ff165f9081526003602090815260409091208251620007f593600890920192919091019062002497565b5060015460ff165f9081526003602052604081204260079091015589516200081f90899062003460565b90505f816001600160401b038111156200083d576200083d62002760565b60405190808252806020026020018201604052801562000867578160200160208202803683370190505b5090505f805b8381101562000ad8575f8d511180156200088757508c5181105b15620008ea575f8d8281518110620008a357620008a362002cc5565b6020026020010151905080848381518110620008c357620008c362002cc5565b60200260200101906001600160a01b031690816001600160a01b03168152505050620009d4565b8c51620008f8908262003497565b91505f8c8c8481811062000910576200091062002cc5565b9050602002810190620009249190620034ad565b8c858151811062000939576200093962002cc5565b60200260200101518c868151811062000956576200095662002cc5565b602002602001015130336040516200096e90620024fc565b6200097f9695949392919062003537565b604051809103905ff08015801562000999573d5f803e3d5ffd5b50905080848381518110620009b257620009b262002cc5565b60200260200101906001600160a01b031690816001600160a01b031681525050505b878782818110620009e957620009e962002cc5565b905060200201602081019062000a009190620035b2565b60015460ff165f90815260036020526040812085516002909101919086908590811062000a315762000a3162002cc5565b6020908102919091018101516001600160a01b031682528181019290925260409081015f908120805461ffff191661ffff959095169490941790935560015460ff16835260039182905282208551910190829086908590811062000a995762000a9962002cc5565b6020908102919091018101516001600160a01b031682528101919091526040015f20805461ffff191661ffff929092169190911790556001016200086d565b506001805460ff165f908152600360209081526040909120845162000b059391909101918501906200250a565b507fcc42337061958f958a08d27f96d5a0a81074c25936db646bc1fb194fdb4ef30f8260405162000b379190620035d5565b60405180910390a1505050505050505050505050565b600480546040805163313ce56760e01b815290516001600160a01b0390921692639dc29fac923392859263313ce5679282820192602092908290030181865afa15801562000b9d573d5f803e3d5ffd5b505050506040513d601f19601f8201168201806040525081019062000bc39190620035e9565b62000bd090600a62003700565b62000bdd90600262003710565b6040516001600160e01b031960e085901b1681526001600160a01b03909216600483015260248201526044015f604051808303815f87803b15801562000c21575f80fd5b505af115801562000c34573d5f803e3d5ffd5b50506001805460ff165f90815260036020526040812082015493509150819062000c6d90829062000c6790869062003460565b62001f98565b119050801562000f6d5760605f62000c8462002095565b9092509050801562000ded575f62000c9d5f8362001f98565b6001805460ff165f9081526003602052604081208651939450909291019085908490811062000cd05762000cd062002cc5565b602002602001015160ff168154811062000cee5762000cee62002cc5565b5f918252602090912001546040516335313c2160e11b81523360048201526001600160a01b0390911691508190636a627842906024016020604051808303815f875af115801562000d41573d5f803e3d5ffd5b505050506040513d601f19601f8201168201806040525081019062000d6791906200372a565b506001805460ff165f9081526003602081815260408084206001600160a01b0387168552909201905290205462000da59161ffff9091169062003742565b60015460ff165f9081526003602081815260408084206001600160a01b0396909616845294909101905291909120805461ffff191661ffff9092169190911790555062000643565b60605f62000dfa62002238565b9092509050600162ffffff8216101562000e27576040516389d19c8760e01b815260040160405180910390fd5b5f62000e395f8362ffffff1662001f98565b90505f83828151811062000e515762000e5162002cc5565b6020908102919091018101516001805460ff165f90815260039093526040909220600801805462ffffff9092169350908390811062000e945762000e9462002cc5565b905f5260205f2090602091828204019190066101000a81548160ff0219169083151502179055505f81600162000ecb919062003460565b6005546007549192506001600160a01b0316906340c10f1990339062000ef2908562003460565b6040516001600160e01b031960e085901b1681526001600160a01b03909216600483015260248201526044016020604051808303815f875af115801562000f3b573d5f803e3d5ffd5b505050506040513d601f19601f8201168201806040525081019062000f6191906200372a565b50505050505050505050565b60605f62000f7a62002238565b909250905062ffffff811615620010cf575f62000f9d5f8362ffffff1662001f98565b90505f83828151811062000fb55762000fb562002cc5565b6020908102919091018101516001805460ff165f90815260039093526040909220600801805462ffffff9092169350908390811062000ff85762000ff862002cc5565b905f5260205f2090602091828204019190066101000a81548160ff0219169083151502179055505f8160016200102f919062003460565b6005546007549192506001600160a01b0316906340c10f1990339062001056908562003460565b6040516001600160e01b031960e085901b1681526001600160a01b03909216600483015260248201526044016020604051808303815f875af11580156200109f573d5f803e3d5ffd5b505050506040513d601f19601f82011682018060405250810190620010c591906200372a565b5050505062000643565b60605f620010dc62002095565b9092509050801562001245575f620010f55f8362001f98565b6001805460ff165f9081526003602052604081208651939450909291019085908490811062001128576200112862002cc5565b602002602001015160ff168154811062001146576200114662002cc5565b5f918252602090912001546040516335313c2160e11b81523360048201526001600160a01b0390911691508190636a627842906024016020604051808303815f875af115801562001199573d5f803e3d5ffd5b505050506040513d601f19601f82011682018060405250810190620011bf91906200372a565b506001805460ff165f9081526003602081815260408084206001600160a01b03871685529092019052902054620011fd9161ffff9091169062003742565b60015460ff165f9081526003602081815260408084206001600160a01b0396909616845294909101905291909120805461ffff191661ffff909216919091179055506200125e565b6040516389d19c8760e01b815260040160405180910390fd5b505050505b5050565b5f8080620012758162001e87565b60015460ff9081169085161115620012a05760405163aed44afd60e01b815260040160405180910390fd5b50505060ff165f9081526003602052604090205462ffffff8082169263010000009092041690565b620012d262002560565b6060805f80620012e28162001e87565b60015460ff90811690871611156200130d5760405163aed44afd60e01b815260040160405180910390fd5b6040805160148082526102a082019092525f91816020015b6060815260200190600190039081620013255750506040805160148082526102a082019092529192505f9190602082015b6060815260200190600190039081620013565790505090505f5b60148160ff161015620014ce5760ff808a165f9081526003602090815260408083209385168352600590930181529082902080548351818402810184019094528084529091830182828015620013ee57602002820191905f5260205f20905b81546001600160a01b03168152600190910190602001808311620013cf575b5050505050838260ff16815181106200140b576200140b62002cc5565b60209081029190910181019190915260ff808b165f908152600383526040808220928516825260069092018352819020805482518185028101850190935280835291929091908301828280156200149d57602002820191905f5260205f20905f905b825461010083900a900460ff168152602060019283018181049485019490930390920291018084116200146d5790505b5050505050828260ff1681518110620014ba57620014ba62002cc5565b602090810291909101015260010162001370565b5060ff88165f9081526003602052604080822060078101548251610280810193849052600490920193869386939186916014918390855b825461010083900a900460ff16815260206001928301818104948501949093039092029101808411620015055790505050505050935096509650965096505050509193509193565b60608080805f6200155e8162001e87565b60015460ff9081169087161115620015895760405163aed44afd60e01b815260040160405180910390fd5b60ff86165f9081526003602052604081206001015490816001600160401b03811115620015ba57620015ba62002760565b604051908082528060200260200182016040528015620015e4578160200160208202803683370190505b5090505f826001600160401b0381111562001603576200160362002760565b6040519080825280602002602001820160405280156200162d578160200160208202803683370190505b5090505f5b838160ff1610156200176b5760ff808b165f908152600360205260408120600181018054600290920193909190851690811062001673576200167362002cc5565b5f9182526020808320909101546001600160a01b03168352820192909252604001902054835161ffff90911690849060ff8416908110620016b857620016b862002cc5565b61ffff90921660209283029190910182015260ff808c165f90815260039283905260408120600181018054919094019391928516908110620016fe57620016fe62002cc5565b5f9182526020808320909101546001600160a01b03168352820192909252604001902054825161ffff90911690839060ff841690811062001743576200174362002cc5565b61ffff9092166020928302919091019091015280620017628162003476565b91505062001632565b5060ff89165f90815260036020908152604091829020600181018054845181850281018501909552808552909386938693600801928691830182828015620017db57602002820191905f5260205f20905b81546001600160a01b03168152600190910190602001808311620017bc575b50505050509350808054806020026020016040519081016040528092919081815260200182805480156200184c57602002820191905f5260205f20905f905b825461010083900a900460ff1615158152602060019283018181049485019490930390920291018084116200181a5790505b505050505090509750975097509750505050509193509193565b5f918252602082815260408084206001600160a01b0393909316845291905290205460ff1690565b5f805f5b60015460ff9081165f90815260036020526040902060040190841660148110620018c057620018c062002cc5565b602081049190910154620018e191601f166101000a900460ff168262003767565b90508162ffffff168410158015620018fd57508062ffffff1684105b620019685760015460ff9081165f9081526003602052604090206004019084166014811062001930576200193062002cc5565b6020810491909101546200195191601f166101000a900460ff168362003767565b9150826200195f8162003476565b93505062001892565b60015460ff9081165f90815260036020908152604080832093871683526005909301905290812054905b818160ff16101562001ba45760015460ff9081165f90815260036020908152604080832089851684526005019091528120805491929091908416908110620019de57620019de62002cc5565b5f91825260208083209091015460015460ff90811684526003835260408085208b8316865260060190935291832080546001600160a01b03909216945091851690811062001a305762001a3062002cc5565b5f91825260208083209082040154604051632118854760e21b8152336004820152601f9092166101000a900460ff1692506001600160a01b03841690638462151c906024015f60405180830381865afa15801562001a90573d5f803e3d5ffd5b505050506040513d5f823e601f3d908101601f1916820160405262001ab9919081019062003786565b90508160ff168151101562001ae15760405163e8fa960b60e01b815260040160405180910390fd5b5f5b8260ff1681101562001b8a57836001600160a01b0316639dc29fac3384848151811062001b145762001b1462002cc5565b60200260200101516040518363ffffffff1660e01b815260040162001b4e9291906001600160a01b03929092168252602082015260400190565b5f604051808303815f87803b15801562001b66575f80fd5b505af115801562001b79573d5f803e3d5ffd5b50506001909201915062001ae39050565b50505050808062001b9b9062003476565b91505062001992565b50600554604051632118854760e21b81523360048201525f916001600160a01b031690638462151c906024015f60405180830381865afa15801562001beb573d5f803e3d5ffd5b505050506040513d5f823e601f3d908101601f1916820160405262001c14919081019062003786565b90505f805f5b835181101562001ce4578662ffffff1660075462001c39919062003460565b84828151811062001c4e5762001c4e62002cc5565b60200260200101511015801562001c9457508562ffffff1660075462001c75919062003460565b84828151811062001c8a5762001c8a62002cc5565b6020026020010151105b1562001ccf576001915083818151811062001cb35762001cb362002cc5565b6020026020010151925083518162001ccc919062003460565b90505b8062001cdb816200380f565b91505062001c1a565b508062001d045760405163263fa57560e11b815260040160405180910390fd5b600554604051632770a7eb60e21b8152336004820152602481018490526001600160a01b0390911690639dc29fac906044015f604051808303815f87803b15801562001d4e575f80fd5b505af115801562001d61573d5f803e3d5ffd5b50506006546007546001600160a01b0390911692506340c10f199150339062001d8c8c600162003460565b62001d98919062003460565b6040516001600160e01b031960e085901b1681526001600160a01b03909216600483015260248201526044016020604051808303815f875af115801562001de1573d5f803e3d5ffd5b505050506040513d601f19601f8201168201806040525081019062001e0791906200372a565b5060015460ff165f90815260036020819052604090912080546301000000900462ffffff169162001e38836200382a565b91906101000a81548162ffffff021916908362ffffff160217905550505050505050505050565b5f8281526020819052604090206001015462001e7b8162001e87565b62000643838362001f2b565b62001e9381336200234f565b50565b5f62001ea3838362001866565b62001f23575f838152602081815260408083206001600160a01b03861684529091529020805460ff1916600117905562001eda3390565b6001600160a01b0316826001600160a01b0316847f2f8788117e7eff1d82e926ec794901d17c78024a50270940304540a733656f0d60405160405180910390a450600162000412565b505f62000412565b5f62001f38838362001866565b1562001f23575f838152602081815260408083206001600160a01b0386168085529252808320805460ff1916905551339286917ff6391f5c32d9c69d2a47ea670b442974b53935d1edc7fd64eb21e047a839171b9190a450600162000412565b5f80424460405160200162001fb7929190918252602082015260400190565b60408051601f198184030181528282528051602091820120428285018190524485850181905260608087018490528551808803909101815260808701865280519085012060a0870183905260c0870182905260e08088018290528651808903909101815261010088018752805190860120610120880193909352610140870191909152610160808701839052855180880390910181526101809096019094528451949092019390932092935090918662002072818862003497565b6200207e90836200384e565b6200208a919062003460565b979650505050505050565b6001805460ff165f908152600360205260408120909101546060919081816001600160401b03811115620020cd57620020cd62002760565b604051908082528060200260200182016040528015620020f7578160200160208202803683370190505b5090505f805b838160ff1610156200222d576001805460ff9081165f90815260036020819052604082209384018054929490910192849290861690811062002143576200214362002cc5565b5f9182526020808320909101546001600160a01b031683528281019390935260409182018120546001805460ff90811684526003909552928220928301805461ffff90921695509193600290930192849291908716908110620021aa57620021aa62002cc5565b5f9182526020808320909101546001600160a01b0316835282019290925260400190205461ffff16905080821015620022155782858581518110620021f357620021f362002cc5565b60ff909216602092830291909101909101528362002211816200380f565b9450505b50508080620022249062003476565b915050620020fd565b509094909350915050565b60015460ff165f908152600360205260408120546060919062ffffff1681816001600160401b0381111562002271576200227162002760565b6040519080825280602002602001820160405280156200229b578160200160208202803683370190505b5090505f805b8362ffffff168162ffffff1610156200222d5760015460ff165f908152600360205260409020600801805462ffffff8316908110620022e457620022e462002cc5565b905f5260205f2090602091828204019190069054906101000a900460ff16620023465780838362ffffff168151811062002322576200232262002cc5565b62ffffff909216602092830291909101909101528162002342816200382a565b9250505b600101620022a1565b6200235b828262001866565b620012635760405163e2517d3f60e01b81526001600160a01b03821660048201526024810183905260440160405180910390fd5b828054828255905f5260205f20908101928215620023e3579160200282015b82811115620023e35781546001600160a01b0319166001600160a01b03843516178255602090920191600190910190620023ae565b50620006179291506200257f565b828054828255905f5260205f2090601f01602090048101928215620023e3579160200282015f5b838211156200245a57833560ff1683826101000a81548160ff021916908360ff16021790555092602001926001016020815f0104928301926001030262002418565b8015620024885782816101000a81549060ff02191690556001016020815f010492830192600103026200245a565b5050620006179291506200257f565b828054828255905f5260205f2090601f01602090048101928215620023e3579160200282015f5b838211156200245a57835183826101000a81548160ff02191690831515021790555092602001926001016020815f01049283019260010302620024be565b6120d1806200386f83390190565b828054828255905f5260205f20908101928215620023e3579160200282015b82811115620023e357825182546001600160a01b0319166001600160a01b0390911617825560209092019160019091019062002529565b6040518061028001604052806014906020820280368337509192915050565b5b8082111562000617575f815560010162002580565b5f60208284031215620025a6575f80fd5b81356001600160e01b031981168114620025be575f80fd5b9392505050565b60ff8116811462001e93575f80fd5b5f8083601f840112620025e5575f80fd5b5081356001600160401b03811115620025fc575f80fd5b6020830191508360208260051b850101111562002617575f80fd5b9250929050565b5f805f805f806080878903121562002634575f80fd5b86356200264181620025c5565b955060208701356200265381620025c5565b945060408701356001600160401b03808211156200266f575f80fd5b6200267d8a838b01620025d4565b9096509450606089013591508082111562002696575f80fd5b50620026a589828a01620025d4565b979a9699509497509295939492505050565b602080825282518282018190525f9190848201906040850190845b81811015620026f357835160ff1683529284019291840191600101620026d2565b50909695505050505050565b5f6020828403121562002710575f80fd5b5035919050565b80356001600160a01b03811681146200272e575f80fd5b919050565b5f806040838503121562002745575f80fd5b82359150620027576020840162002717565b90509250929050565b634e487b7160e01b5f52604160045260245ffd5b604051601f8201601f191681016001600160401b03811182821017156200279f576200279f62002760565b604052919050565b5f6001600160401b03821115620027c257620027c262002760565b5060051b60200190565b5f82601f830112620027dc575f80fd5b81356020620027f5620027ef83620027a7565b62002774565b8083825260208201915060208460051b87010193508684111562002817575f80fd5b602086015b848110156200283e57620028308162002717565b83529183019183016200281c565b509695505050505050565b5f601f83601f8401126200285b575f80fd5b823560206200286e620027ef83620027a7565b82815260059290921b850181019181810190878411156200288d575f80fd5b8287015b84811015620029265780356001600160401b0380821115620028b1575f80fd5b818a0191508a603f830112620028c5575f80fd5b85820135604082821115620028de57620028de62002760565b620028f1828b01601f1916890162002774565b92508183528c8183860101111562002907575f80fd5b8181850189850137505f90820187015284525091830191830162002891565b50979650505050505050565b803562ffffff811681146200272e575f80fd5b5f805f805f805f8060c0898b0312156200295d575f80fd5b88356001600160401b038082111562002974575f80fd5b620029828c838d01620027cc565b995060208b013591508082111562002998575f80fd5b620029a68c838d01620025d4565b909950975060408b0135915080821115620029bf575f80fd5b620029cd8c838d0162002849565b965060608b0135915080821115620029e3575f80fd5b620029f18c838d0162002849565b955060808b013591508082111562002a07575f80fd5b5062002a168b828c01620025d4565b909450925062002a2b905060a08a0162002932565b90509295985092959890939650565b5f6020828403121562002a4b575f80fd5b8135620025be81620025c5565b5f82825180855260208086019550808260051b8401018186015f5b8481101562002acd57858303601f190189528151805180855290850190858501905f5b8181101562002ab757835160ff168352928701929187019160010162002a96565b5050998501999350509083019060010162002a73565b5090979650505050505050565b5f6102e08281018388845b601481101562002b0957815160ff1683526020928301929091019060010162002ae5565b50505061028084019190915285519081905261030080840191600581901b85019091019060208089015f5b8381101562002b95578785036102ff190186528151805180875290840190848701905f5b8181101562002b7f5783516001600160a01b03168352928601929186019160010162002b58565b5050968401969550509082019060010162002b34565b505050508381036102a085015262002bae818762002a58565b92505050826102c083015295945050505050565b5f815180845260208085019450602084015f5b8381101562002bfc5781516001600160a01b03168752958201959082019060010162002bd5565b509495945050505050565b5f815180845260208085019450602084015f5b8381101562002bfc57815161ffff168752958201959082019060010162002c1a565b608081525f62002c50608083018762002bc2565b6020838203602085015262002c66828862002c07565b9150838203604085015262002c7c828762002c07565b8481036060860152855180825260208088019450909101905f5b8181101562002cb657845115158352938301939183019160010162002c96565b50909998505050505050505050565b634e487b7160e01b5f52603260045260245ffd5b5f6080820160ff808816845260208188168186015260406080604087015283885480865260a0955060a088019150895f52835f205f5b8281101562002d365781546001600160a01b03168452928501926001918201910162002d0f565b5050506060878203606089015281895462002d55818590815260200190565b5f8c81526020812095509092505b81601f8201101562002ff557845460ff89821616845262002d8d8885018a8360081c1660ff169052565b62002da18785018a8360101c1660ff169052565b62002db58585018a8360181c1660ff169052565b60ff81891c8a1616608085015262002dd68a85018a8360281c1660ff169052565b60c062002dec8186018b8460301c1660ff169052565b60e062002e028187018c8560381c1660ff169052565b60ff838a1c8c161661010087015262002e2661012087018c8560481c1660ff169052565b62002e3c61014087018c8560501c1660ff169052565b62002e5261016087018c8560581c1660ff169052565b60ff83881c8c161661018087015262002e766101a087018c8560681c1660ff169052565b62002e8c6101c087018c8560701c1660ff169052565b62002ea26101e087018c8560781c1660ff169052565b62002eb861020087018c8560801c1660ff169052565b62002ece61022087018c8560881c1660ff169052565b62002ee461024087018c8560901c1660ff169052565b62002efa61026087018c8560981c1660ff169052565b60ff838d1c8c161661028087015262002f1e6102a087018c8560a81c1660ff169052565b62002f346102c087018c8560b01c1660ff169052565b62002f4a6102e087018c8560b81c1660ff169052565b60ff83831c8c161661030087015262002f6e61032087018c8560c81c1660ff169052565b62002f8461034087018c8560d01c1660ff169052565b62002f9a61036087018c8560d81c1660ff169052565b60ff83821c8c1616610380870152505062002fc06103a085018a8360e81c1660ff169052565b62002fd66103c085018a8360f01c1660ff169052565b60f81c6103e08401526001949094019361040090920191860162002d63565b8454985081811015620030125760ff898916168352918601916001015b8181101562003035576200302d83898b60081c1660ff169052565b918601916001015b8181101562003058576200305083898b60101c1660ff169052565b918601916001015b818110156200307b576200307383898b60181c1660ff169052565b918601916001015b81811015620030965760ff89881c8916168352918601916001015b81811015620030b957620030b183898b60281c1660ff169052565b918601916001015b81811015620030dc57620030d483898b60301c1660ff169052565b918601916001015b81811015620030ff57620030f783898b60381c1660ff169052565b918601916001015b8181101562003122576200311a83898b60401c1660ff169052565b918601916001015b8181101562003145576200313d83898b60481c1660ff169052565b918601916001015b8181101562003168576200316083898b60501c1660ff169052565b918601916001015b818110156200318b576200318383898b60581c1660ff169052565b918601916001015b81811015620031ae57620031a683898b60601c1660ff169052565b918601916001015b81811015620031d157620031c983898b60681c1660ff169052565b918601916001015b81811015620031f457620031ec83898b60701c1660ff169052565b918601916001015b8181101562003217576200320f83898b60781c1660ff169052565b918601916001015b818110156200323a576200323283898b60801c1660ff169052565b918601916001015b818110156200325d576200325583898b60881c1660ff169052565b918601916001015b8181101562003280576200327883898b60901c1660ff169052565b918601916001015b81811015620032a3576200329b83898b60981c1660ff169052565b918601916001015b81811015620032c657620032be83898b60a01c1660ff169052565b918601916001015b81811015620032e957620032e183898b60a81c1660ff169052565b918601916001015b818110156200330c576200330483898b60b01c1660ff169052565b918601916001015b818110156200332f576200332783898b60b81c1660ff169052565b918601916001015b8181101562003352576200334a83898b60c01c1660ff169052565b918601916001015b8181101562003375576200336d83898b60c81c1660ff169052565b918601916001015b8181101562003398576200339083898b60d01c1660ff169052565b918601916001015b81811015620033bb57620033b383898b60d81c1660ff169052565b918601916001015b81811015620033de57620033d683898b60e01c1660ff169052565b918601916001015b818110156200340157620033f983898b60e81c1660ff169052565b918601916001015b8181101562003424576200341c83898b60f01c1660ff169052565b918601916001015b81811015620034395760f889901c8352918601915b50909d9c50505050505050505050505050565b634e487b7160e01b5f52601160045260245ffd5b808201808211156200041257620004126200344c565b5f60ff821660ff81036200348e576200348e6200344c565b60010192915050565b818103818111156200041257620004126200344c565b5f808335601e19843603018112620034c3575f80fd5b8301803591506001600160401b03821115620034dd575f80fd5b60200191503681900382131562002617575f80fd5b5f81518084525f5b818110156200351857602081850181015186830182015201620034fa565b505f602082860101526020601f19601f83011685010191505092915050565b60a081528560a0820152858760c08301375f60c087830101525f601f19601f880116820160c08382030160208401526200357560c0820188620034f2565b905082810360408401526200358b8187620034f2565b6001600160a01b039586166060850152939094166080909201919091525095945050505050565b5f60208284031215620035c3575f80fd5b813561ffff81168114620025be575f80fd5b602081525f620025be602083018462002bc2565b5f60208284031215620035fa575f80fd5b8151620025be81620025c5565b600181815b808511156200364757815f19048211156200362b576200362b6200344c565b808516156200363957918102915b93841c93908002906200360c565b509250929050565b5f826200365f5750600162000412565b816200366d57505f62000412565b81600181146200368657600281146200369157620036b1565b600191505062000412565b60ff841115620036a557620036a56200344c565b50506001821b62000412565b5060208310610133831016604e8410600b8410161715620036d6575081810a62000412565b620036e2838362003607565b805f1904821115620036f857620036f86200344c565b029392505050565b5f620025be60ff8416836200364f565b80820281158282048414176200041257620004126200344c565b5f602082840312156200373b575f80fd5b5051919050565b61ffff8181168382160190808211156200376057620037606200344c565b5092915050565b62ffffff8181168382160190808211156200376057620037606200344c565b5f602080838503121562003798575f80fd5b82516001600160401b03811115620037ae575f80fd5b8301601f81018513620037bf575f80fd5b8051620037d0620027ef82620027a7565b81815260059190911b82018301908381019087831115620037ef575f80fd5b928401925b828410156200208a57835182529284019290840190620037f4565b5f600182016200382357620038236200344c565b5060010190565b5f62ffffff8083168181036200384457620038446200344c565b6001019392505050565b5f826200386957634e487b7160e01b5f52601260045260245ffd5b50069056fe608060405234801562000010575f80fd5b50604051620020d1380380620020d18339810160408190526200003391620002cc565b8484600162000043838262000405565b50600262000052828262000405565b506200006391505f905082620000ba565b50620000705f83620000ba565b506200009d7ff0887ba65ee2024ea881d91b74c2450ef19e1557f03bed3ea9f16b037cbe2dc983620000ba565b50620000a98362000166565b50506001600d5550620004d1915050565b5f828152602081815260408083206001600160a01b038516845290915281205460ff166200015d575f838152602081815260408083206001600160a01b03861684529091529020805460ff19166001179055620001143390565b6001600160a01b0316826001600160a01b0316847f2f8788117e7eff1d82e926ec794901d17c78024a50270940304540a733656f0d60405160405180910390a450600162000160565b505f5b92915050565b5f620001728162000185565b600c62000180838262000405565b505050565b62000191813362000194565b50565b5f828152602081815260408083206001600160a01b038516845290915290205460ff16620001eb5760405163e2517d3f60e01b81526001600160a01b03821660048201526024810183905260440160405180910390fd5b5050565b634e487b7160e01b5f52604160045260245ffd5b5f82601f83011262000213575f80fd5b81516001600160401b0380821115620002305762000230620001ef565b604051601f8301601f19908116603f011681019082821181831017156200025b576200025b620001ef565b816040528381526020925086602085880101111562000278575f80fd5b5f91505b838210156200029b57858201830151818301840152908201906200027c565b5f602085830101528094505050505092915050565b80516001600160a01b0381168114620002c7575f80fd5b919050565b5f805f805f60a08688031215620002e1575f80fd5b85516001600160401b0380821115620002f8575f80fd5b6200030689838a0162000203565b965060208801519150808211156200031c575f80fd5b6200032a89838a0162000203565b9550604088015191508082111562000340575f80fd5b506200034f8882890162000203565b9350506200036060608701620002b0565b91506200037060808701620002b0565b90509295509295909350565b600181811c908216806200039157607f821691505b602082108103620003b057634e487b7160e01b5f52602260045260245ffd5b50919050565b601f8211156200018057805f5260205f20601f840160051c81016020851015620003dd5750805b601f840160051c820191505b81811015620003fe575f8155600101620003e9565b5050505050565b81516001600160401b03811115620004215762000421620001ef565b62000439816200043284546200037c565b84620003b6565b602080601f8311600181146200046f575f8415620004575750858301515b5f19600386901b1c1916600185901b178555620004c9565b5f85815260208120601f198616915b828110156200049f578886015182559484019460019091019084016200047e565b5085821015620004bd57878501515f19600388901b60f8161c191681555b505060018460011b0185555b505050505050565b611bf280620004df5f395ff3fe608060405234801561000f575f80fd5b50600436106101d1575f3560e01c806369e2f0fb116100fe5780639dc29fac1161009e578063c87b56dd1161006e578063c87b56dd146103ed578063d539139314610400578063d547741f14610414578063e985e9c514610427575f80fd5b80639dc29fac146103ad578063a217fddf146103c0578063a22cb465146103c7578063b88d4fde146103da575f80fd5b8063714c5398116100d9578063714c53981461036a5780638462151c1461037257806391d148541461039257806395d89b41146103a5575f80fd5b806369e2f0fb146103315780636a6278421461034457806370a0823114610357575f80fd5b80632f2ff15d1161017457806342842e0e1161014457806342842e0e146102e55780634f6ccce7146102f857806355f804b31461030b5780636352211e1461031e575f80fd5b80632f2ff15d146102995780632f745c59146102ac57806336568abe146102bf5780633dd1eb61146102d2575f80fd5b8063095ea7b3116101af578063095ea7b31461023d57806318160ddd1461025257806323b872dd14610264578063248a9ca314610277575f80fd5b806301ffc9a7146101d557806306fdde03146101fd578063081812fc14610212575b5f80fd5b6101e86101e3366004611643565b61043a565b60405190151581526020015b60405180910390f35b61020561044a565b6040516101f491906116ab565b6102256102203660046116bd565b6104da565b6040516001600160a01b0390911681526020016101f4565b61025061024b3660046116ef565b610501565b005b600a545b6040519081526020016101f4565b610250610272366004611717565b610510565b6102566102853660046116bd565b5f9081526020819052604090206001015490565b6102506102a7366004611750565b61059e565b6102566102ba3660046116ef565b6105c2565b6102506102cd366004611750565b610625565b6102506102e036600461177a565b61065d565b6102506102f3366004611717565b61067e565b6102566103063660046116bd565b610698565b61025061031936600461181a565b6106ed565b61022561032c3660046116bd565b610703565b61025061033f36600461177a565b61070d565b61025661035236600461177a565b61072e565b61025661036536600461177a565b6107b2565b6102056107f7565b61038561038036600461177a565b610806565b6040516101f4919061185f565b6101e86103a0366004611750565b61089b565b6102056108c3565b6102506103bb3660046116ef565b6108d2565b6102565f81565b6102506103d53660046118a2565b61091d565b6102506103e83660046118db565b610928565b6102056103fb3660046116bd565b61093f565b6102565f80516020611b9d83398151915281565b610250610422366004611750565b61094a565b6101e8610435366004611952565b61096e565b5f6104448261099b565b92915050565b6060600180546104599061197a565b80601f01602080910402602001604051908101604052809291908181526020018280546104859061197a565b80156104d05780601f106104a7576101008083540402835291602001916104d0565b820191905f5260205f20905b8154815290600101906020018083116104b357829003601f168201915b5050505050905090565b5f6104e4826109bf565b505f828152600560205260409020546001600160a01b0316610444565b61050c8282336109f7565b5050565b6001600160a01b03821661053e57604051633250574960e11b81525f60048201526024015b60405180910390fd5b5f61054a838333610a04565b9050836001600160a01b0316816001600160a01b031614610598576040516364283d7b60e01b81526001600160a01b0380861660048301526024820184905282166044820152606401610535565b50505050565b5f828152602081905260409020600101546105b881610a1a565b6105988383610a27565b5f6105cc836107b2565b82106105fd5760405163295f44f760e21b81526001600160a01b038416600482015260248101839052604401610535565b506001600160a01b03919091165f908152600860209081526040808320938352929052205490565b6001600160a01b038116331461064e5760405163334bd91960e11b815260040160405180910390fd5b6106588282610ab6565b505050565b5f61066781610a1a565b61050c5f80516020611b9d8339815191528361059e565b61065883838360405180602001604052805f815250610928565b5f6106a2600a5490565b82106106ca5760405163295f44f760e21b81525f600482015260248101839052604401610535565b600a82815481106106dd576106dd6119ac565b905f5260205f2001549050919050565b5f6106f781610a1a565b600c6106588382611a04565b5f610444826109bf565b5f61071781610a1a565b61050c5f80516020611b9d8339815191528361094a565b5f5f80516020611b9d83398151915261074681610a1a565b600d546107538482610b1f565b600d8054905f61076283611ad8565b9091555050604080516001600160a01b0386168152602081018390527f0f6798a560793a54c3bcfe86a93cde1e73087d944c0ea20544137d4121396885910160405180910390a191505b50919050565b5f6001600160a01b0382166107dc576040516322718ad960e21b81525f6004820152602401610535565b506001600160a01b03165f9081526004602052604090205490565b6060610801610b80565b905090565b60605f610812836107b2565b90505f8167ffffffffffffffff81111561082e5761082e611793565b604051908082528060200260200182016040528015610857578160200160208202803683370190505b5090505f5b828110156108935761086e85826105c2565b828281518110610880576108806119ac565b602090810291909101015260010161085c565b509392505050565b5f918252602082815260408084206001600160a01b0393909316845291905290205460ff1690565b6060600280546104599061197a565b604080516001600160a01b0384168152602081018390527fcc16f5dbb4873280815c1ee09dbd06736cffcc184412cf7a71a0fdb75d397ca5910160405180910390a161050c81610b8f565b61050c338383610bc7565b610933848484610510565b61059884848484610c65565b606061044482610d8b565b5f8281526020819052604090206001015461096481610a1a565b6105988383610ab6565b6001600160a01b039182165f90815260066020908152604080832093909416825291909152205460ff1690565b5f6001600160e01b0319821663780e9d6360e01b1480610444575061044482610e8a565b5f818152600360205260408120546001600160a01b03168061044457604051637e27328960e01b815260048101849052602401610535565b6106588383836001610eae565b5f80610a11858585610fb2565b95945050505050565b610a24813361107d565b50565b5f610a32838361089b565b610aaf575f838152602081815260408083206001600160a01b03861684529091529020805460ff19166001179055610a673390565b6001600160a01b0316826001600160a01b0316847f2f8788117e7eff1d82e926ec794901d17c78024a50270940304540a733656f0d60405160405180910390a4506001610444565b505f610444565b5f610ac1838361089b565b15610aaf575f838152602081815260408083206001600160a01b0386168085529252808320805460ff1916905551339286917ff6391f5c32d9c69d2a47ea670b442974b53935d1edc7fd64eb21e047a839171b9190a4506001610444565b6001600160a01b038216610b4857604051633250574960e11b81525f6004820152602401610535565b5f610b5483835f610a04565b90506001600160a01b03811615610658576040516339e3563760e11b81525f6004820152602401610535565b6060600c80546104599061197a565b5f610b9b5f835f610a04565b90506001600160a01b03811661050c57604051637e27328960e01b815260048101839052602401610535565b6001600160a01b038216610bf957604051630b61174360e31b81526001600160a01b0383166004820152602401610535565b6001600160a01b038381165f81815260066020908152604080832094871680845294825291829020805460ff191686151590811790915591519182527f17307eab39ab6107e8899845ad3d59bd9653f200f220920489ca2b5937696c31910160405180910390a3505050565b6001600160a01b0383163b1561059857604051630a85bd0160e11b81526001600160a01b0384169063150b7a0290610ca7903390889087908790600401611af0565b6020604051808303815f875af1925050508015610ce1575060408051601f3d908101601f19168201909252610cde91810190611b2c565b60015b610d48573d808015610d0e576040519150601f19603f3d011682016040523d82523d5f602084013e610d13565b606091505b5080515f03610d4057604051633250574960e11b81526001600160a01b0385166004820152602401610535565b805181602001fd5b6001600160e01b03198116630a85bd0160e11b14610d8457604051633250574960e11b81526001600160a01b0385166004820152602401610535565b5050505050565b6060610d96826109bf565b505f8281526007602052604081208054610daf9061197a565b80601f0160208091040260200160405190810160405280929190818152602001828054610ddb9061197a565b8015610e265780601f10610dfd57610100808354040283529160200191610e26565b820191905f5260205f20905b815481529060010190602001808311610e0957829003601f168201915b505050505090505f610e36610b80565b905080515f03610e47575092915050565b815115610e79578082604051602001610e61929190611b47565b60405160208183030381529060405292505050919050565b610e82846110b6565b949350505050565b5f6001600160e01b03198216632483248360e11b148061044457506104448261111b565b8080610ec257506001600160a01b03821615155b15610f83575f610ed1846109bf565b90506001600160a01b03831615801590610efd5750826001600160a01b0316816001600160a01b031614155b8015610f105750610f0e818461096e565b155b15610f395760405163a9fbf51f60e01b81526001600160a01b0384166004820152602401610535565b8115610f815783856001600160a01b0316826001600160a01b03167f8c5be1e5ebec7d5bd14f71427d1e84f3dd0314c0f7b2291e5b200ac8c7c3b92560405160405180910390a45b505b50505f90815260056020526040902080546001600160a01b0319166001600160a01b0392909216919091179055565b5f80610fbf85858561115a565b90506001600160a01b03811661101b5761101684600a80545f838152600b60205260408120829055600182018355919091527fc65a7bb8d6351c1cf70c95a316cc6a92839c986682d98bc35f958f4883f9d2a80155565b61103e565b846001600160a01b0316816001600160a01b03161461103e5761103e818561124c565b6001600160a01b03851661105a57611055846112d9565b610e82565b846001600160a01b0316816001600160a01b031614610e8257610e828585611380565b611087828261089b565b61050c5760405163e2517d3f60e01b81526001600160a01b038216600482015260248101839052604401610535565b60606110c1826109bf565b505f6110cb610b80565b90505f8151116110e95760405180602001604052805f815250611114565b806110f3846113ce565b604051602001611104929190611b47565b6040516020818303038152906040525b9392505050565b5f6001600160e01b031982166380ac58cd60e01b148061114b57506001600160e01b03198216635b5e139f60e01b145b8061044457506104448261145e565b5f828152600360205260408120546001600160a01b039081169083161561118657611186818486611492565b6001600160a01b038116156111c0576111a15f855f80610eae565b6001600160a01b0381165f90815260046020526040902080545f190190555b6001600160a01b038516156111ee576001600160a01b0385165f908152600460205260409020805460010190555b5f8481526003602052604080822080546001600160a01b0319166001600160a01b0389811691821790925591518793918516917fddf252ad1be2c89b69c2b068fc378daa952ba7f163c4a11628f55a4df523b3ef91a4949350505050565b5f611256836107b2565b5f838152600960205260409020549091508082146112a7576001600160a01b0384165f9081526008602090815260408083208584528252808320548484528184208190558352600990915290208190555b505f9182526009602090815260408084208490556001600160a01b039094168352600881528383209183525290812055565b600a545f906112ea90600190611b75565b5f838152600b6020526040812054600a8054939450909284908110611311576113116119ac565b905f5260205f200154905080600a8381548110611330576113306119ac565b5f918252602080832090910192909255828152600b9091526040808220849055858252812055600a80548061136757611367611b88565b600190038181905f5260205f20015f9055905550505050565b5f600161138c846107b2565b6113969190611b75565b6001600160a01b039093165f908152600860209081526040808320868452825280832085905593825260099052919091209190915550565b60605f6113da836114f6565b60010190505f8167ffffffffffffffff8111156113f9576113f9611793565b6040519080825280601f01601f191660200182016040528015611423576020820181803683370190505b5090508181016020015b5f19016f181899199a1a9b1b9c1cb0b131b232b360811b600a86061a8153600a850494508461142d57509392505050565b5f6001600160e01b03198216637965db0b60e01b148061044457506301ffc9a760e01b6001600160e01b0319831614610444565b61149d8383836115cd565b610658576001600160a01b0383166114cb57604051637e27328960e01b815260048101829052602401610535565b60405163177e802f60e01b81526001600160a01b038316600482015260248101829052604401610535565b5f8072184f03e93ff9f4daa797ed6e38ed64bf6a1f0160401b83106115345772184f03e93ff9f4daa797ed6e38ed64bf6a1f0160401b830492506040015b6d04ee2d6d415b85acef81000000008310611560576d04ee2d6d415b85acef8100000000830492506020015b662386f26fc10000831061157e57662386f26fc10000830492506010015b6305f5e1008310611596576305f5e100830492506008015b61271083106115aa57612710830492506004015b606483106115bc576064830492506002015b600a83106104445760010192915050565b5f6001600160a01b03831615801590610e825750826001600160a01b0316846001600160a01b031614806116065750611606848461096e565b80610e825750505f908152600560205260409020546001600160a01b03908116911614919050565b6001600160e01b031981168114610a24575f80fd5b5f60208284031215611653575f80fd5b81356111148161162e565b5f5b83811015611678578181015183820152602001611660565b50505f910152565b5f815180845261169781602086016020860161165e565b601f01601f19169290920160200192915050565b602081525f6111146020830184611680565b5f602082840312156116cd575f80fd5b5035919050565b80356001600160a01b03811681146116ea575f80fd5b919050565b5f8060408385031215611700575f80fd5b611709836116d4565b946020939093013593505050565b5f805f60608486031215611729575f80fd5b611732846116d4565b9250611740602085016116d4565b9150604084013590509250925092565b5f8060408385031215611761575f80fd5b82359150611771602084016116d4565b90509250929050565b5f6020828403121561178a575f80fd5b611114826116d4565b634e487b7160e01b5f52604160045260245ffd5b5f67ffffffffffffffff808411156117c1576117c1611793565b604051601f8501601f19908116603f011681019082821181831017156117e9576117e9611793565b81604052809350858152868686011115611801575f80fd5b858560208301375f602087830101525050509392505050565b5f6020828403121561182a575f80fd5b813567ffffffffffffffff811115611840575f80fd5b8201601f81018413611850575f80fd5b610e82848235602084016117a7565b602080825282518282018190525f9190848201906040850190845b818110156118965783518352928401929184019160010161187a565b50909695505050505050565b5f80604083850312156118b3575f80fd5b6118bc836116d4565b9150602083013580151581146118d0575f80fd5b809150509250929050565b5f805f80608085870312156118ee575f80fd5b6118f7856116d4565b9350611905602086016116d4565b925060408501359150606085013567ffffffffffffffff811115611927575f80fd5b8501601f81018713611937575f80fd5b611946878235602084016117a7565b91505092959194509250565b5f8060408385031215611963575f80fd5b61196c836116d4565b9150611771602084016116d4565b600181811c9082168061198e57607f821691505b6020821081036107ac57634e487b7160e01b5f52602260045260245ffd5b634e487b7160e01b5f52603260045260245ffd5b601f82111561065857805f5260205f20601f840160051c810160208510156119e55750805b601f840160051c820191505b81811015610d84575f81556001016119f1565b815167ffffffffffffffff811115611a1e57611a1e611793565b611a3281611a2c845461197a565b846119c0565b602080601f831160018114611a65575f8415611a4e5750858301515b5f19600386901b1c1916600185901b178555611abc565b5f85815260208120601f198616915b82811015611a9357888601518255948401946001909101908401611a74565b5085821015611ab057878501515f19600388901b60f8161c191681555b505060018460011b0185555b505050505050565b634e487b7160e01b5f52601160045260245ffd5b5f60018201611ae957611ae9611ac4565b5060010190565b6001600160a01b03858116825284166020820152604081018390526080606082018190525f90611b2290830184611680565b9695505050505050565b5f60208284031215611b3c575f80fd5b81516111148161162e565b5f8351611b5881846020880161165e565b835190830190611b6c81836020880161165e565b01949350505050565b8181038181111561044457610444611ac4565b634e487b7160e01b5f52603160045260245ffdfef0887ba65ee2024ea881d91b74c2450ef19e1557f03bed3ea9f16b037cbe2dc9a264697066735822122067d5dc01cf61fb6ef2c89fb84e137939d83559f1d9e0bbccdc67de2691cf823164736f6c63430008180033a2646970667358221220d45236f9fc9790bfd3494cc5884718e5670c9f07cb592b9f8c22177537eebe0d64736f6c6343000818003360a060405234801562000010575f80fd5b5060405162000ed738038062000ed78339810160408190526200003391620001a0565b620000416012600a620002ed565b6200004d908462000304565b816040518060400160405280600381526020016211185b60ea1b8152506040518060400160405280600381526020016211105360ea1b8152508160039081620000979190620003bc565b506004620000a68282620003bc565b5050506001600160a01b038116620000d857604051631e4fbdf760e01b81525f60048201526024015b60405180910390fd5b620000e38162000133565b50805f03620001085760405163392e1e2760e01b81525f6004820152602401620000cf565b60805250600680546001600160a01b0319166001600160a01b03929092169190911790555062000488565b600580546001600160a01b038381166001600160a01b0319831681179093556040519116919082907f8be0079c531659141344cd1fd0a4f28419497f9722a3daafe3b4186f6b6457e0905f90a35050565b80516001600160a01b03811681146200019b575f80fd5b919050565b5f805f60608486031215620001b3575f80fd5b83519250620001c56020850162000184565b9150620001d56040850162000184565b90509250925092565b634e487b7160e01b5f52601160045260245ffd5b600181815b808511156200023257815f1904821115620002165762000216620001de565b808516156200022457918102915b93841c9390800290620001f7565b509250929050565b5f826200024a57506001620002e7565b816200025857505f620002e7565b81600181146200027157600281146200027c576200029c565b6001915050620002e7565b60ff841115620002905762000290620001de565b50506001821b620002e7565b5060208310610133831016604e8410600b8410161715620002c1575081810a620002e7565b620002cd8383620001f2565b805f1904821115620002e357620002e3620001de565b0290505b92915050565b5f620002fd60ff8416836200023a565b9392505050565b8082028115828204841417620002e757620002e7620001de565b634e487b7160e01b5f52604160045260245ffd5b600181811c908216806200034757607f821691505b6020821081036200036657634e487b7160e01b5f52602260045260245ffd5b50919050565b601f821115620003b757805f5260205f20601f840160051c81016020851015620003935750805b601f840160051c820191505b81811015620003b4575f81556001016200039f565b50505b505050565b81516001600160401b03811115620003d857620003d86200031e565b620003f081620003e9845462000332565b846200036c565b602080601f83116001811462000426575f84156200040e5750858301515b5f19600386901b1c1916600185901b17855562000480565b5f85815260208120601f198616915b82811015620004565788860151825594840194600190910190840162000435565b50858210156200047457878501515f19600388901b60f8161c191681555b505060018460011b0185555b505050505050565b608051610a2f620004a85f395f818161016b01526107110152610a2f5ff3fe608060405234801561000f575f80fd5b50600436106100f0575f3560e01c806370a08231116100935780639dc29fac116100635780639dc29fac146101f7578063a9059cbb1461020a578063dd62ed3e1461021d578063f2fde38b14610255575f80fd5b806370a08231146101a4578063715018a6146101cc5780638da5cb5b146101d457806395d89b41146101ef575f80fd5b806323b872dd116100ce57806323b872dd14610147578063313ce5671461015a578063355274ea1461016957806340c10f191461018f575f80fd5b806306fdde03146100f4578063095ea7b31461011257806318160ddd14610135575b5f80fd5b6100fc610268565b6040516101099190610889565b60405180910390f35b6101256101203660046108f0565b6102f8565b6040519015158152602001610109565b6002545b604051908152602001610109565b610125610155366004610918565b610311565b60405160128152602001610109565b7f0000000000000000000000000000000000000000000000000000000000000000610139565b6101a261019d3660046108f0565b610334565b005b6101396101b2366004610951565b6001600160a01b03165f9081526020819052604090205490565b6101a261038d565b6005546040516001600160a01b039091168152602001610109565b6100fc6103a0565b6101a26102053660046108f0565b6103af565b6101256102183660046108f0565b6103f8565b61013961022b366004610971565b6001600160a01b039182165f90815260016020908152604080832093909416825291909152205490565b6101a2610263366004610951565b610405565b606060038054610277906109a2565b80601f01602080910402602001604051908101604052809291908181526020018280546102a3906109a2565b80156102ee5780601f106102c5576101008083540402835291602001916102ee565b820191905f5260205f20905b8154815290600101906020018083116102d157829003601f168201915b5050505050905090565b5f33610305818585610447565b60019150505b92915050565b5f3361031e858285610459565b6103298585856104d4565b506001949350505050565b61033c610531565b610346828261055e565b604080516001600160a01b0384168152602081018390527f0f6798a560793a54c3bcfe86a93cde1e73087d944c0ea20544137d412139688591015b60405180910390a15050565b610395610531565b61039e5f610596565b565b606060048054610277906109a2565b6103b982826105e7565b604080516001600160a01b0384168152602081018390527fcc16f5dbb4873280815c1ee09dbd06736cffcc184412cf7a71a0fdb75d397ca59101610381565b5f336103058185856104d4565b61040d610531565b6001600160a01b03811661043b57604051631e4fbdf760e01b81525f60048201526024015b60405180910390fd5b61044481610596565b50565b610454838383600161061b565b505050565b6001600160a01b038381165f908152600160209081526040808320938616835292905220545f1981146104ce57818110156104c057604051637dc7a0d960e11b81526001600160a01b03841660048201526024810182905260448101839052606401610432565b6104ce84848484035f61061b565b50505050565b6001600160a01b0383166104fd57604051634b637e8f60e11b81525f6004820152602401610432565b6001600160a01b0382166105265760405163ec442f0560e01b81525f6004820152602401610432565b6104548383836106ed565b6005546001600160a01b0316331461039e5760405163118cdaa760e01b8152336004820152602401610432565b6001600160a01b0382166105875760405163ec442f0560e01b81525f6004820152602401610432565b6105925f83836106ed565b5050565b600580546001600160a01b038381166001600160a01b0319831681179093556040519116919082907f8be0079c531659141344cd1fd0a4f28419497f9722a3daafe3b4186f6b6457e0905f90a35050565b6001600160a01b03821661061057604051634b637e8f60e11b81525f6004820152602401610432565b610592825f836106ed565b6001600160a01b0384166106445760405163e602df0560e01b81525f6004820152602401610432565b6001600160a01b03831661066d57604051634a1406b160e11b81525f6004820152602401610432565b6001600160a01b038085165f90815260016020908152604080832093871683529290522082905580156104ce57826001600160a01b0316846001600160a01b03167f8c5be1e5ebec7d5bd14f71427d1e84f3dd0314c0f7b2291e5b200ac8c7c3b925846040516106df91815260200190565b60405180910390a350505050565b6104548383836106fe838383610763565b6001600160a01b038316610454576002547f0000000000000000000000000000000000000000000000000000000000000000908181111561075c5760405163279e7e1560e21b81526004810182905260248101839052604401610432565b5050505050565b6001600160a01b03831661078d578060025f82825461078291906109da565b909155506107fd9050565b6001600160a01b0383165f90815260208190526040902054818110156107df5760405163391434e360e21b81526001600160a01b03851660048201526024810182905260448101839052606401610432565b6001600160a01b0384165f9081526020819052604090209082900390555b6001600160a01b03821661081957600280548290039055610837565b6001600160a01b0382165f9081526020819052604090208054820190555b816001600160a01b0316836001600160a01b03167fddf252ad1be2c89b69c2b068fc378daa952ba7f163c4a11628f55a4df523b3ef8360405161087c91815260200190565b60405180910390a3505050565b5f602080835283518060208501525f5b818110156108b557858101830151858201604001528201610899565b505f604082860101526040601f19601f8301168501019250505092915050565b80356001600160a01b03811681146108eb575f80fd5b919050565b5f8060408385031215610901575f80fd5b61090a836108d5565b946020939093013593505050565b5f805f6060848603121561092a575f80fd5b610933846108d5565b9250610941602085016108d5565b9150604084013590509250925092565b5f60208284031215610961575f80fd5b61096a826108d5565b9392505050565b5f8060408385031215610982575f80fd5b61098b836108d5565b9150610999602084016108d5565b90509250929050565b600181811c908216806109b657607f821691505b6020821081036109d457634e487b7160e01b5f52602260045260245ffd5b50919050565b8082018082111561030b57634e487b7160e01b5f52601160045260245ffdfea26469706673582212203192220bf9f4c316c1f1db601873926008a622464126f71306b55f2857743fea64736f6c63430008180033608060405234801562000010575f80fd5b506040516200209e3803806200209e83398101604081905262000033916200025a565b6040518060400160405280600e81526020016d426c75657072696e74204974656d60901b81525060405180604001604052806002815260200161042560f41b8152508160019081620000869190620003d5565b506002620000958282620003d5565b50620000a691505f905082620000f5565b50620000b35f83620000f5565b50620000e07ff0887ba65ee2024ea881d91b74c2450ef19e1557f03bed3ea9f16b037cbe2dc983620000f5565b50620000ec83620001a1565b505050620004a1565b5f828152602081815260408083206001600160a01b038516845290915281205460ff1662000198575f838152602081815260408083206001600160a01b03861684529091529020805460ff191660011790556200014f3390565b6001600160a01b0316826001600160a01b0316847f2f8788117e7eff1d82e926ec794901d17c78024a50270940304540a733656f0d60405160405180910390a45060016200019b565b505f5b92915050565b5f620001ad81620001c0565b600c620001bb8382620003d5565b505050565b620001cc8133620001cf565b50565b5f828152602081815260408083206001600160a01b038516845290915290205460ff16620002265760405163e2517d3f60e01b81526001600160a01b03821660048201526024810183905260440160405180910390fd5b5050565b634e487b7160e01b5f52604160045260245ffd5b80516001600160a01b038116811462000255575f80fd5b919050565b5f805f606084860312156200026d575f80fd5b83516001600160401b038082111562000284575f80fd5b818601915086601f83011262000298575f80fd5b815181811115620002ad57620002ad6200022a565b604051601f8201601f19908116603f01168101908382118183101715620002d857620002d86200022a565b81604052828152602093508984848701011115620002f4575f80fd5b5f91505b82821015620003175784820184015181830185015290830190620002f8565b5f848483010152809750505050620003318187016200023e565b9350505062000343604085016200023e565b90509250925092565b600181811c908216806200036157607f821691505b6020821081036200038057634e487b7160e01b5f52602260045260245ffd5b50919050565b601f821115620001bb57805f5260205f20601f840160051c81016020851015620003ad5750805b601f840160051c820191505b81811015620003ce575f8155600101620003b9565b5050505050565b81516001600160401b03811115620003f157620003f16200022a565b62000409816200040284546200034c565b8462000386565b602080601f8311600181146200043f575f8415620004275750858301515b5f19600386901b1c1916600185901b17855562000499565b5f85815260208120601f198616915b828110156200046f578886015182559484019460019091019084016200044e565b50858210156200048d57878501515f19600388901b60f8161c191681555b505060018460011b0185555b505050505050565b611bef80620004af5f395ff3fe608060405234801561000f575f80fd5b50600436106101d1575f3560e01c80636352211e116100fe5780639dc29fac1161009e578063c87b56dd1161006e578063c87b56dd146103ed578063d539139314610400578063d547741f14610414578063e985e9c514610427575f80fd5b80639dc29fac146103ad578063a217fddf146103c0578063a22cb465146103c7578063b88d4fde146103da575f80fd5b8063714c5398116100d9578063714c53981461036a5780638462151c1461037257806391d148541461039257806395d89b41146103a5575f80fd5b80636352211e1461033157806369e2f0fb1461034457806370a0823114610357575f80fd5b80632f2ff15d1161017457806340c10f191161014457806340c10f19146102e557806342842e0e146102f85780634f6ccce71461030b57806355f804b31461031e575f80fd5b80632f2ff15d146102995780632f745c59146102ac57806336568abe146102bf5780633dd1eb61146102d2575f80fd5b8063095ea7b3116101af578063095ea7b31461023d57806318160ddd1461025257806323b872dd14610264578063248a9ca314610277575f80fd5b806301ffc9a7146101d557806306fdde03146101fd578063081812fc14610212575b5f80fd5b6101e86101e336600461165a565b61043a565b60405190151581526020015b60405180910390f35b61020561044a565b6040516101f491906116c2565b6102256102203660046116d4565b6104da565b6040516001600160a01b0390911681526020016101f4565b61025061024b366004611706565b610501565b005b600a545b6040519081526020016101f4565b61025061027236600461172e565b610510565b6102566102853660046116d4565b5f9081526020819052604090206001015490565b6102506102a7366004611767565b61059e565b6102566102ba366004611706565b6105c2565b6102506102cd366004611767565b610625565b6102506102e0366004611791565b61065d565b6102566102f3366004611706565b61067e565b61025061030636600461172e565b6106ea565b6102566103193660046116d4565b610704565b61025061032c366004611831565b610759565b61022561033f3660046116d4565b61076f565b610250610352366004611791565b610779565b610256610365366004611791565b61079a565b6102056107df565b610385610380366004611791565b6107ee565b6040516101f49190611876565b6101e86103a0366004611767565b610883565b6102056108ab565b6102506103bb366004611706565b6108ba565b6102565f81565b6102506103d53660046118b9565b610905565b6102506103e83660046118f2565b610910565b6102056103fb3660046116d4565b610927565b6102565f80516020611b9a83398151915281565b610250610422366004611767565b610932565b6101e8610435366004611969565b610956565b5f61044482610983565b92915050565b60606001805461045990611991565b80601f016020809104026020016040519081016040528092919081815260200182805461048590611991565b80156104d05780601f106104a7576101008083540402835291602001916104d0565b820191905f5260205f20905b8154815290600101906020018083116104b357829003601f168201915b5050505050905090565b5f6104e4826109a7565b505f828152600560205260409020546001600160a01b0316610444565b61050c8282336109df565b5050565b6001600160a01b03821661053e57604051633250574960e11b81525f60048201526024015b60405180910390fd5b5f61054a8383336109ec565b9050836001600160a01b0316816001600160a01b031614610598576040516364283d7b60e01b81526001600160a01b0380861660048301526024820184905282166044820152606401610535565b50505050565b5f828152602081905260409020600101546105b881610a02565b6105988383610a0f565b5f6105cc8361079a565b82106105fd5760405163295f44f760e21b81526001600160a01b038416600482015260248101839052604401610535565b506001600160a01b03919091165f908152600860209081526040808320938352929052205490565b6001600160a01b038116331461064e5760405163334bd91960e11b815260040160405180910390fd5b6106588282610a9e565b505050565b5f61066781610a02565b61050c5f80516020611b9a8339815191528361059e565b5f5f80516020611b9a83398151915261069681610a02565b6106a08484610b07565b604080516001600160a01b0386168152602081018590527f0f6798a560793a54c3bcfe86a93cde1e73087d944c0ea20544137d4121396885910160405180910390a1509092915050565b61065883838360405180602001604052805f815250610910565b5f61070e600a5490565b82106107365760405163295f44f760e21b81525f600482015260248101839052604401610535565b600a8281548110610749576107496119c9565b905f5260205f2001549050919050565b5f61076381610a02565b600c6106588382611a21565b5f610444826109a7565b5f61078381610a02565b61050c5f80516020611b9a83398151915283610932565b5f6001600160a01b0382166107c4576040516322718ad960e21b81525f6004820152602401610535565b506001600160a01b03165f9081526004602052604090205490565b60606107e9610b20565b905090565b60605f6107fa8361079a565b90505f8167ffffffffffffffff811115610816576108166117aa565b60405190808252806020026020018201604052801561083f578160200160208202803683370190505b5090505f5b8281101561087b5761085685826105c2565b828281518110610868576108686119c9565b6020908102919091010152600101610844565b509392505050565b5f918252602082815260408084206001600160a01b0393909316845291905290205460ff1690565b60606002805461045990611991565b604080516001600160a01b0384168152602081018390527fcc16f5dbb4873280815c1ee09dbd06736cffcc184412cf7a71a0fdb75d397ca5910160405180910390a161050c81610b2f565b61050c338383610b67565b61091b848484610510565b61059884848484610c05565b606061044482610d2b565b5f8281526020819052604090206001015461094c81610a02565b6105988383610a9e565b6001600160a01b039182165f90815260066020908152604080832093909416825291909152205460ff1690565b5f6001600160e01b0319821663780e9d6360e01b1480610444575061044482610e2a565b5f818152600360205260408120546001600160a01b03168061044457604051637e27328960e01b815260048101849052602401610535565b6106588383836001610e4e565b5f806109f9858585610f52565b95945050505050565b610a0c813361101d565b50565b5f610a1a8383610883565b610a97575f838152602081815260408083206001600160a01b03861684529091529020805460ff19166001179055610a4f3390565b6001600160a01b0316826001600160a01b0316847f2f8788117e7eff1d82e926ec794901d17c78024a50270940304540a733656f0d60405160405180910390a4506001610444565b505f610444565b5f610aa98383610883565b15610a97575f838152602081815260408083206001600160a01b0386168085529252808320805460ff1916905551339286917ff6391f5c32d9c69d2a47ea670b442974b53935d1edc7fd64eb21e047a839171b9190a4506001610444565b61050c828260405180602001604052805f815250611056565b6060600c805461045990611991565b5f610b3b5f835f6109ec565b90506001600160a01b03811661050c57604051637e27328960e01b815260048101839052602401610535565b6001600160a01b038216610b9957604051630b61174360e31b81526001600160a01b0383166004820152602401610535565b6001600160a01b038381165f81815260066020908152604080832094871680845294825291829020805460ff191686151590811790915591519182527f17307eab39ab6107e8899845ad3d59bd9653f200f220920489ca2b5937696c31910160405180910390a3505050565b6001600160a01b0383163b1561059857604051630a85bd0160e11b81526001600160a01b0384169063150b7a0290610c47903390889087908790600401611ae1565b6020604051808303815f875af1925050508015610c81575060408051601f3d908101601f19168201909252610c7e91810190611b1d565b60015b610ce8573d808015610cae576040519150601f19603f3d011682016040523d82523d5f602084013e610cb3565b606091505b5080515f03610ce057604051633250574960e11b81526001600160a01b0385166004820152602401610535565b805181602001fd5b6001600160e01b03198116630a85bd0160e11b14610d2457604051633250574960e11b81526001600160a01b0385166004820152602401610535565b5050505050565b6060610d36826109a7565b505f8281526007602052604081208054610d4f90611991565b80601f0160208091040260200160405190810160405280929190818152602001828054610d7b90611991565b8015610dc65780601f10610d9d57610100808354040283529160200191610dc6565b820191905f5260205f20905b815481529060010190602001808311610da957829003601f168201915b505050505090505f610dd6610b20565b905080515f03610de7575092915050565b815115610e19578082604051602001610e01929190611b38565b60405160208183030381529060405292505050919050565b610e228461106c565b949350505050565b5f6001600160e01b03198216632483248360e11b14806104445750610444826110d1565b8080610e6257506001600160a01b03821615155b15610f23575f610e71846109a7565b90506001600160a01b03831615801590610e9d5750826001600160a01b0316816001600160a01b031614155b8015610eb05750610eae8184610956565b155b15610ed95760405163a9fbf51f60e01b81526001600160a01b0384166004820152602401610535565b8115610f215783856001600160a01b0316826001600160a01b03167f8c5be1e5ebec7d5bd14f71427d1e84f3dd0314c0f7b2291e5b200ac8c7c3b92560405160405180910390a45b505b50505f90815260056020526040902080546001600160a01b0319166001600160a01b0392909216919091179055565b5f80610f5f858585611110565b90506001600160a01b038116610fbb57610fb684600a80545f838152600b60205260408120829055600182018355919091527fc65a7bb8d6351c1cf70c95a316cc6a92839c986682d98bc35f958f4883f9d2a80155565b610fde565b846001600160a01b0316816001600160a01b031614610fde57610fde8185611202565b6001600160a01b038516610ffa57610ff58461128f565b610e22565b846001600160a01b0316816001600160a01b031614610e2257610e228585611336565b6110278282610883565b61050c5760405163e2517d3f60e01b81526001600160a01b038216600482015260248101839052604401610535565b6110608383611384565b6106585f848484610c05565b6060611077826109a7565b505f611081610b20565b90505f81511161109f5760405180602001604052805f8152506110ca565b806110a9846113e5565b6040516020016110ba929190611b38565b6040516020818303038152906040525b9392505050565b5f6001600160e01b031982166380ac58cd60e01b148061110157506001600160e01b03198216635b5e139f60e01b145b80610444575061044482611475565b5f828152600360205260408120546001600160a01b039081169083161561113c5761113c8184866114a9565b6001600160a01b03811615611176576111575f855f80610e4e565b6001600160a01b0381165f90815260046020526040902080545f190190555b6001600160a01b038516156111a4576001600160a01b0385165f908152600460205260409020805460010190555b5f8481526003602052604080822080546001600160a01b0319166001600160a01b0389811691821790925591518793918516917fddf252ad1be2c89b69c2b068fc378daa952ba7f163c4a11628f55a4df523b3ef91a4949350505050565b5f61120c8361079a565b5f8381526009602052604090205490915080821461125d576001600160a01b0384165f9081526008602090815260408083208584528252808320548484528184208190558352600990915290208190555b505f9182526009602090815260408084208490556001600160a01b039094168352600881528383209183525290812055565b600a545f906112a090600190611b66565b5f838152600b6020526040812054600a80549394509092849081106112c7576112c76119c9565b905f5260205f200154905080600a83815481106112e6576112e66119c9565b5f918252602080832090910192909255828152600b9091526040808220849055858252812055600a80548061131d5761131d611b85565b600190038181905f5260205f20015f9055905550505050565b5f60016113428461079a565b61134c9190611b66565b6001600160a01b039093165f908152600860209081526040808320868452825280832085905593825260099052919091209190915550565b6001600160a01b0382166113ad57604051633250574960e11b81525f6004820152602401610535565b5f6113b983835f6109ec565b90506001600160a01b03811615610658576040516339e3563760e11b81525f6004820152602401610535565b60605f6113f18361150d565b60010190505f8167ffffffffffffffff811115611410576114106117aa565b6040519080825280601f01601f19166020018201604052801561143a576020820181803683370190505b5090508181016020015b5f19016f181899199a1a9b1b9c1cb0b131b232b360811b600a86061a8153600a850494508461144457509392505050565b5f6001600160e01b03198216637965db0b60e01b148061044457506301ffc9a760e01b6001600160e01b0319831614610444565b6114b48383836115e4565b610658576001600160a01b0383166114e257604051637e27328960e01b815260048101829052602401610535565b60405163177e802f60e01b81526001600160a01b038316600482015260248101829052604401610535565b5f8072184f03e93ff9f4daa797ed6e38ed64bf6a1f0160401b831061154b5772184f03e93ff9f4daa797ed6e38ed64bf6a1f0160401b830492506040015b6d04ee2d6d415b85acef81000000008310611577576d04ee2d6d415b85acef8100000000830492506020015b662386f26fc10000831061159557662386f26fc10000830492506010015b6305f5e10083106115ad576305f5e100830492506008015b61271083106115c157612710830492506004015b606483106115d3576064830492506002015b600a83106104445760010192915050565b5f6001600160a01b03831615801590610e225750826001600160a01b0316846001600160a01b0316148061161d575061161d8484610956565b80610e225750505f908152600560205260409020546001600160a01b03908116911614919050565b6001600160e01b031981168114610a0c575f80fd5b5f6020828403121561166a575f80fd5b81356110ca81611645565b5f5b8381101561168f578181015183820152602001611677565b50505f910152565b5f81518084526116ae816020860160208601611675565b601f01601f19169290920160200192915050565b602081525f6110ca6020830184611697565b5f602082840312156116e4575f80fd5b5035919050565b80356001600160a01b0381168114611701575f80fd5b919050565b5f8060408385031215611717575f80fd5b611720836116eb565b946020939093013593505050565b5f805f60608486031215611740575f80fd5b611749846116eb565b9250611757602085016116eb565b9150604084013590509250925092565b5f8060408385031215611778575f80fd5b82359150611788602084016116eb565b90509250929050565b5f602082840312156117a1575f80fd5b6110ca826116eb565b634e487b7160e01b5f52604160045260245ffd5b5f67ffffffffffffffff808411156117d8576117d86117aa565b604051601f8501601f19908116603f01168101908282118183101715611800576118006117aa565b81604052809350858152868686011115611818575f80fd5b858560208301375f602087830101525050509392505050565b5f60208284031215611841575f80fd5b813567ffffffffffffffff811115611857575f80fd5b8201601f81018413611867575f80fd5b610e22848235602084016117be565b602080825282518282018190525f9190848201906040850190845b818110156118ad57835183529284019291840191600101611891565b50909695505050505050565b5f80604083850312156118ca575f80fd5b6118d3836116eb565b9150602083013580151581146118e7575f80fd5b809150509250929050565b5f805f8060808587031215611905575f80fd5b61190e856116eb565b935061191c602086016116eb565b925060408501359150606085013567ffffffffffffffff81111561193e575f80fd5b8501601f8101871361194e575f80fd5b61195d878235602084016117be565b91505092959194509250565b5f806040838503121561197a575f80fd5b611983836116eb565b9150611788602084016116eb565b600181811c908216806119a557607f821691505b6020821081036119c357634e487b7160e01b5f52602260045260245ffd5b50919050565b634e487b7160e01b5f52603260045260245ffd5b601f82111561065857805f5260205f20601f840160051c81016020851015611a025750805b601f840160051c820191505b81811015610d24575f8155600101611a0e565b815167ffffffffffffffff811115611a3b57611a3b6117aa565b611a4f81611a498454611991565b846119dd565b602080601f831160018114611a82575f8415611a6b5750858301515b5f19600386901b1c1916600185901b178555611ad9565b5f85815260208120601f198616915b82811015611ab057888601518255948401946001909101908401611a91565b5085821015611acd57878501515f19600388901b60f8161c191681555b505060018460011b0185555b505050505050565b6001600160a01b03858116825284166020820152604081018390526080606082018190525f90611b1390830184611697565b9695505050505050565b5f60208284031215611b2d575f80fd5b81516110ca81611645565b5f8351611b49818460208801611675565b835190830190611b5d818360208801611675565b01949350505050565b8181038181111561044457634e487b7160e01b5f52601160045260245ffd5b634e487b7160e01b5f52603160045260245ffdfef0887ba65ee2024ea881d91b74c2450ef19e1557f03bed3ea9f16b037cbe2dc9a264697066735822122035b43335c20a65e95ea4bfa033b80de9e07b651c49e67dca0efed509cb87aa3a64736f6c63430008180033608060405234801562000010575f80fd5b5060405162001b8e38038062001b8e83398101604081905262000033916200026b565b6040518060400160405280601481526020017f44757a7a6c652050757a7a6c652050696563657300000000000000000000000081525060405180604001604052806004815260200163222d282d60e11b8152508160019081620000979190620003e6565b506002620000a68282620003e6565b50620000b791505f90508262000106565b50620000c45f8362000106565b50620000f17ff0887ba65ee2024ea881d91b74c2450ef19e1557f03bed3ea9f16b037cbe2dc98362000106565b50620000fd83620001b2565b505050620004b2565b5f828152602081815260408083206001600160a01b038516845290915281205460ff16620001a9575f838152602081815260408083206001600160a01b03861684529091529020805460ff19166001179055620001603390565b6001600160a01b0316826001600160a01b0316847f2f8788117e7eff1d82e926ec794901d17c78024a50270940304540a733656f0d60405160405180910390a4506001620001ac565b505f5b92915050565b5f620001be81620001d1565b6008620001cc8382620003e6565b505050565b620001dd8133620001e0565b50565b5f828152602081815260408083206001600160a01b038516845290915290205460ff16620002375760405163e2517d3f60e01b81526001600160a01b03821660048201526024810183905260440160405180910390fd5b5050565b634e487b7160e01b5f52604160045260245ffd5b80516001600160a01b038116811462000266575f80fd5b919050565b5f805f606084860312156200027e575f80fd5b83516001600160401b038082111562000295575f80fd5b818601915086601f830112620002a9575f80fd5b815181811115620002be57620002be6200023b565b604051601f8201601f19908116603f01168101908382118183101715620002e957620002e96200023b565b8160405282815260209350898484870101111562000305575f80fd5b5f91505b8282101562000328578482018401518183018501529083019062000309565b5f848483010152809750505050620003428187016200024f565b9350505062000354604085016200024f565b90509250925092565b600181811c908216806200037257607f821691505b6020821081036200039157634e487b7160e01b5f52602260045260245ffd5b50919050565b601f821115620001cc57805f5260205f20601f840160051c81016020851015620003be5750805b601f840160051c820191505b81811015620003df575f8155600101620003ca565b5050505050565b81516001600160401b038111156200040257620004026200023b565b6200041a816200041384546200035d565b8462000397565b602080601f83116001811462000450575f8415620004385750858301515b5f19600386901b1c1916600185901b178555620004aa565b5f85815260208120601f198616915b8281101562000480578886015182559484019460019091019084016200045f565b50858210156200049e57878501515f19600388901b60f8161c191681555b505060018460011b0185555b505050505050565b6116ce80620004c05f395ff3fe608060405234801561000f575f80fd5b5060043610610187575f3560e01c806369e2f0fb116100d9578063a217fddf11610093578063c87b56dd1161006e578063c87b56dd14610359578063d53913931461036c578063d547741f14610380578063e985e9c514610393575f80fd5b8063a217fddf1461032c578063a22cb46514610333578063b88d4fde14610346575f80fd5b806369e2f0fb146102d057806370a08231146102e3578063714c5398146102f657806391d14854146102fe57806395d89b41146103115780639dc29fac14610319575f80fd5b80632f2ff15d1161014457806340c10f191161011f57806340c10f191461028457806342842e0e1461029757806355f804b3146102aa5780636352211e146102bd575f80fd5b80632f2ff15d1461024b57806336568abe1461025e5780633dd1eb6114610271575f80fd5b806301ffc9a71461018b57806306fdde03146101b3578063081812fc146101c8578063095ea7b3146101f357806323b872dd14610208578063248a9ca31461021b575b5f80fd5b61019e6101993660046111c3565b6103a6565b60405190151581526020015b60405180910390f35b6101bb6103b6565b6040516101aa919061122b565b6101db6101d636600461123d565b610446565b6040516001600160a01b0390911681526020016101aa565b61020661020136600461126f565b61046d565b005b610206610216366004611297565b61047c565b61023d61022936600461123d565b5f9081526020819052604090206001015490565b6040519081526020016101aa565b6102066102593660046112d0565b61050a565b61020661026c3660046112d0565b61052e565b61020661027f3660046112fa565b610566565b61023d61029236600461126f565b610587565b6102066102a5366004611297565b6105f3565b6102066102b836600461139a565b61060d565b6101db6102cb36600461123d565b610623565b6102066102de3660046112fa565b61062d565b61023d6102f13660046112fa565b61064e565b6101bb610693565b61019e61030c3660046112d0565b6106a2565b6101bb6106ca565b61020661032736600461126f565b6106d9565b61023d5f81565b6102066103413660046113df565b610724565b610206610354366004611418565b61072f565b6101bb61036736600461123d565b610746565b61023d5f8051602061167983398151915281565b61020661038e3660046112d0565b610751565b61019e6103a136600461148f565b610775565b5f6103b0826107a2565b92915050565b6060600180546103c5906114b7565b80601f01602080910402602001604051908101604052809291908181526020018280546103f1906114b7565b801561043c5780601f106104135761010080835404028352916020019161043c565b820191905f5260205f20905b81548152906001019060200180831161041f57829003601f168201915b5050505050905090565b5f610450826107c6565b505f828152600560205260409020546001600160a01b03166103b0565b6104788282336107fe565b5050565b6001600160a01b0382166104aa57604051633250574960e11b81525f60048201526024015b60405180910390fd5b5f6104b683833361080b565b9050836001600160a01b0316816001600160a01b031614610504576040516364283d7b60e01b81526001600160a01b03808616600483015260248201849052821660448201526064016104a1565b50505050565b5f82815260208190526040902060010154610524816108fd565b610504838361090a565b6001600160a01b03811633146105575760405163334bd91960e11b815260040160405180910390fd5b6105618282610999565b505050565b5f610570816108fd565b6104785f805160206116798339815191528361050a565b5f5f8051602061167983398151915261059f816108fd565b6105a98484610a02565b604080516001600160a01b0386168152602081018590527f0f6798a560793a54c3bcfe86a93cde1e73087d944c0ea20544137d4121396885910160405180910390a1509092915050565b61056183838360405180602001604052805f81525061072f565b5f610617816108fd565b60086105618382611533565b5f6103b0826107c6565b5f610637816108fd565b6104785f8051602061167983398151915283610751565b5f6001600160a01b038216610678576040516322718ad960e21b81525f60048201526024016104a1565b506001600160a01b03165f9081526004602052604090205490565b606061069d610a63565b905090565b5f918252602082815260408084206001600160a01b0393909316845291905290205460ff1690565b6060600280546103c5906114b7565b604080516001600160a01b0384168152602081018390527fcc16f5dbb4873280815c1ee09dbd06736cffcc184412cf7a71a0fdb75d397ca5910160405180910390a161047881610a72565b610478338383610aaa565b61073a84848461047c565b61050484848484610b48565b60606103b082610c6e565b5f8281526020819052604090206001015461076b816108fd565b6105048383610999565b6001600160a01b039182165f90815260066020908152604080832093909416825291909152205460ff1690565b5f6001600160e01b03198216632483248360e11b14806103b057506103b082610d6d565b5f818152600360205260408120546001600160a01b0316806103b057604051637e27328960e01b8152600481018490526024016104a1565b6105618383836001610dac565b5f828152600360205260408120546001600160a01b039081169083161561083757610837818486610eb0565b6001600160a01b03811615610871576108525f855f80610dac565b6001600160a01b0381165f90815260046020526040902080545f190190555b6001600160a01b0385161561089f576001600160a01b0385165f908152600460205260409020805460010190555b5f8481526003602052604080822080546001600160a01b0319166001600160a01b0389811691821790925591518793918516917fddf252ad1be2c89b69c2b068fc378daa952ba7f163c4a11628f55a4df523b3ef91a4949350505050565b6109078133610f14565b50565b5f61091583836106a2565b610992575f838152602081815260408083206001600160a01b03861684529091529020805460ff1916600117905561094a3390565b6001600160a01b0316826001600160a01b0316847f2f8788117e7eff1d82e926ec794901d17c78024a50270940304540a733656f0d60405160405180910390a45060016103b0565b505f6103b0565b5f6109a483836106a2565b15610992575f838152602081815260408083206001600160a01b0386168085529252808320805460ff1916905551339286917ff6391f5c32d9c69d2a47ea670b442974b53935d1edc7fd64eb21e047a839171b9190a45060016103b0565b6001600160a01b038216610a2b57604051633250574960e11b81525f60048201526024016104a1565b5f610a3783835f61080b565b90506001600160a01b03811615610561576040516339e3563760e11b81525f60048201526024016104a1565b6060600880546103c5906114b7565b5f610a7e5f835f61080b565b90506001600160a01b03811661047857604051637e27328960e01b8152600481018390526024016104a1565b6001600160a01b038216610adc57604051630b61174360e31b81526001600160a01b03831660048201526024016104a1565b6001600160a01b038381165f81815260066020908152604080832094871680845294825291829020805460ff191686151590811790915591519182527f17307eab39ab6107e8899845ad3d59bd9653f200f220920489ca2b5937696c31910160405180910390a3505050565b6001600160a01b0383163b1561050457604051630a85bd0160e11b81526001600160a01b0384169063150b7a0290610b8a9033908890879087906004016115f3565b6020604051808303815f875af1925050508015610bc4575060408051601f3d908101601f19168201909252610bc19181019061162f565b60015b610c2b573d808015610bf1576040519150601f19603f3d011682016040523d82523d5f602084013e610bf6565b606091505b5080515f03610c2357604051633250574960e11b81526001600160a01b03851660048201526024016104a1565b805181602001fd5b6001600160e01b03198116630a85bd0160e11b14610c6757604051633250574960e11b81526001600160a01b03851660048201526024016104a1565b5050505050565b6060610c79826107c6565b505f8281526007602052604081208054610c92906114b7565b80601f0160208091040260200160405190810160405280929190818152602001828054610cbe906114b7565b8015610d095780601f10610ce057610100808354040283529160200191610d09565b820191905f5260205f20905b815481529060010190602001808311610cec57829003601f168201915b505050505090505f610d19610a63565b905080515f03610d2a575092915050565b815115610d5c578082604051602001610d4492919061164a565b60405160208183030381529060405292505050919050565b610d6584610f4d565b949350505050565b5f6001600160e01b031982166380ac58cd60e01b1480610d9d57506001600160e01b03198216635b5e139f60e01b145b806103b057506103b082610fb2565b8080610dc057506001600160a01b03821615155b15610e81575f610dcf846107c6565b90506001600160a01b03831615801590610dfb5750826001600160a01b0316816001600160a01b031614155b8015610e0e5750610e0c8184610775565b155b15610e375760405163a9fbf51f60e01b81526001600160a01b03841660048201526024016104a1565b8115610e7f5783856001600160a01b0316826001600160a01b03167f8c5be1e5ebec7d5bd14f71427d1e84f3dd0314c0f7b2291e5b200ac8c7c3b92560405160405180910390a45b505b50505f90815260056020526040902080546001600160a01b0319166001600160a01b0392909216919091179055565b610ebb838383610fe6565b610561576001600160a01b038316610ee957604051637e27328960e01b8152600481018290526024016104a1565b60405163177e802f60e01b81526001600160a01b0383166004820152602481018290526044016104a1565b610f1e82826106a2565b6104785760405163e2517d3f60e01b81526001600160a01b0382166004820152602481018390526044016104a1565b6060610f58826107c6565b505f610f62610a63565b90505f815111610f805760405180602001604052805f815250610fab565b80610f8a84611047565b604051602001610f9b92919061164a565b6040516020818303038152906040525b9392505050565b5f6001600160e01b03198216637965db0b60e01b14806103b057506301ffc9a760e01b6001600160e01b03198316146103b0565b5f6001600160a01b03831615801590610d655750826001600160a01b0316846001600160a01b0316148061101f575061101f8484610775565b80610d655750505f908152600560205260409020546001600160a01b03908116911614919050565b60605f611053836110d7565b60010190505f8167ffffffffffffffff81111561107257611072611313565b6040519080825280601f01601f19166020018201604052801561109c576020820181803683370190505b5090508181016020015b5f19016f181899199a1a9b1b9c1cb0b131b232b360811b600a86061a8153600a85049450846110a657509392505050565b5f8072184f03e93ff9f4daa797ed6e38ed64bf6a1f0160401b83106111155772184f03e93ff9f4daa797ed6e38ed64bf6a1f0160401b830492506040015b6d04ee2d6d415b85acef81000000008310611141576d04ee2d6d415b85acef8100000000830492506020015b662386f26fc10000831061115f57662386f26fc10000830492506010015b6305f5e1008310611177576305f5e100830492506008015b612710831061118b57612710830492506004015b6064831061119d576064830492506002015b600a83106103b05760010192915050565b6001600160e01b031981168114610907575f80fd5b5f602082840312156111d3575f80fd5b8135610fab816111ae565b5f5b838110156111f85781810151838201526020016111e0565b50505f910152565b5f81518084526112178160208601602086016111de565b601f01601f19169290920160200192915050565b602081525f610fab6020830184611200565b5f6020828403121561124d575f80fd5b5035919050565b80356001600160a01b038116811461126a575f80fd5b919050565b5f8060408385031215611280575f80fd5b61128983611254565b946020939093013593505050565b5f805f606084860312156112a9575f80fd5b6112b284611254565b92506112c060208501611254565b9150604084013590509250925092565b5f80604083850312156112e1575f80fd5b823591506112f160208401611254565b90509250929050565b5f6020828403121561130a575f80fd5b610fab82611254565b634e487b7160e01b5f52604160045260245ffd5b5f67ffffffffffffffff8084111561134157611341611313565b604051601f8501601f19908116603f0116810190828211818310171561136957611369611313565b81604052809350858152868686011115611381575f80fd5b858560208301375f602087830101525050509392505050565b5f602082840312156113aa575f80fd5b813567ffffffffffffffff8111156113c0575f80fd5b8201601f810184136113d0575f80fd5b610d6584823560208401611327565b5f80604083850312156113f0575f80fd5b6113f983611254565b91506020830135801515811461140d575f80fd5b809150509250929050565b5f805f806080858703121561142b575f80fd5b61143485611254565b935061144260208601611254565b925060408501359150606085013567ffffffffffffffff811115611464575f80fd5b8501601f81018713611474575f80fd5b61148387823560208401611327565b91505092959194509250565b5f80604083850312156114a0575f80fd5b6114a983611254565b91506112f160208401611254565b600181811c908216806114cb57607f821691505b6020821081036114e957634e487b7160e01b5f52602260045260245ffd5b50919050565b601f82111561056157805f5260205f20601f840160051c810160208510156115145750805b601f840160051c820191505b81811015610c67575f8155600101611520565b815167ffffffffffffffff81111561154d5761154d611313565b6115618161155b84546114b7565b846114ef565b602080601f831160018114611594575f841561157d5750858301515b5f19600386901b1c1916600185901b1785556115eb565b5f85815260208120601f198616915b828110156115c2578886015182559484019460019091019084016115a3565b50858210156115df57878501515f19600388901b60f8161c191681555b505060018460011b0185555b505050505050565b6001600160a01b03858116825284166020820152604081018390526080606082018190525f9061162590830184611200565b9695505050505050565b5f6020828403121561163f575f80fd5b8151610fab816111ae565b5f835161165b8184602088016111de565b83519083019061166f8183602088016111de565b0194935050505056fef0887ba65ee2024ea881d91b74c2450ef19e1557f03bed3ea9f16b037cbe2dc9a26469706673582212206b86226fc353260e5525496138baaf834a97ce295c4d1bf71e68da566b481f3664736f6c63430008180033",
  "linkReferences": {},
  "deployedLinkReferences": {}
}